:1000000012C02CC02BC02AC029C028C027C026C0BF
:1000100025C0B2C623C0B3C321C020C01FC01EC0AC
:100020001DC01CC01BC011241FBECFE5D4E0DEBF25
:10003000CDBF12E0A0E6B0E0EAE5FAE102C005902B
:100040000D92A43AB107D9F722E0A4EAB2E001C0C8
:100050001D92A73EB207E1F702D0FDCCD1CFCF93DE
:10006000DF93CDB7DEB72B970FB6F894DEBF0FBE88
:10007000CDBF05D280E030D2F4D164D765D680E020
:100080009BE012D7612C0F2EF7E07F2EF02DCE01D2
:1000900001964C010F2EF8EE4F2EF3E05F2EF02D5F
:1000A0000F2EFAE82F2EF0E03F2EF02D54D6A09020
:1000B000A502B090A602C090A702D090A802E0903E
:1000C000A902F090AA020091AB021091AC02E3D910
:1000D0002F323547410551056105710581059105AF
:1000E00099F090F038D62093A5023093A602409361
:1000F000A7025093A8026093A9027093AA0280936A
:10010000AB029093AC02D9D127D7813031F49091D2
:10011000A4029111862D8093A4028091A4028130C3
:1001200019F482E3D9D102C0862DD6D1D3D35C0194
:1001300013D58B019C01C50164E670E025D9061B2F
:10014000170B9801D5014FD9688779878A879B87D4
:1001500028EE33E040E050E02AD969017A01F40149
:10016000272D11922A95E9F70A3011059CF4C80150
:10017000B2010AD99F938F9389E790E09F938F9361
:100180009F928F92C7D90F900F900F900F900F9062
:100190000F9042C0043611059CF4C801B201F4D896
:1001A0009F938F9382E890E09F938F939F928F927B
:1001B000B1D90F900F900F900F900F900F902CC00F
:1001C0000031F7E21F0794F4C801B201DDD89F9314
:1001D0008F937F936F933F922F929F928F929AD992
:1001E0000FB6F894DEBF0FBECDBF16C0C801B20176
:1001F000CBD8262F372F6AE070E0C6D87F936F9355
:100200003F932F933F922F929F928F9283D90FB655
:10021000F894DEBF0FBECDBF462D662DC40111D2AE
:10022000F401272D11922A95E9F78AE0A816B10466
:100230009CF4C501B201A8D89F938F9382E990E006
:100240009F938F939F928F9265D90F900F900F90ED
:100250000F900F900F9048C094E6A916B1049CF43B
:10026000C501B20191D89F938F938BE990E09F9342
:100270008F939F928F924ED90F900F900F900F9067
:100280000F900F9031C0E0E1AE16E7E2BE06A4F495
:10029000C501B20179D89F938F937F936F9383EABF
:1002A00090E09F938F939F928F9234D90FB6F894DA
:1002B000DEBF0FBECDBF18C0C501B20165D8262F65
:1002C000372F6AE070E060D87F936F933F932F934E
:1002D00083EA90E09F938F939F928F921BD90FB6E2
:1002E000F894DEBF0FBECDBF41E0662DC401A9D199
:1002F000F401272D11922A95E9F78AE0C816D10456
:10030000E104F104BCF4C701B60128EE33E040E09B
:1003100050E04DD87F936F938BEA90E09F938F933B
:100320009F928F92F7D80F900F900F900F900F9091
:100330000F9088C094E6C916D104E104F104BCF41E
:10034000C701B60128EE33E040E050E030D87F939B
:100350006F9384EB90E09F938F939F928F92DAD864
:100360000F900F900F900F900F900F906BC06885BB
:1003700079858A859B8520E432E44FE050E017D8E8
:10038000122F032FE0E1CE16E7E2DE06E104F104CE
:10039000C4F4C701B60128EE33E040E050E007D8CE
:1003A0007F936F930F931F938CEB90E09F938F93AA
:1003B0009F928F92AFD80FB6F894DEBF0FBECDBF1D
:1003C00041C090EAC91696E8D90691E0E906F10421
:1003D000ECF4C701B60128EE33E040E050E0E7D787
:1003E0002AE030E040E050E0E2D73F932F930F93B4
:1003F0001F938CEB90E09F938F939F928F928AD85C
:100400000FB6F894DEBF0FBECDBF1CC0C701B6014A
:1004100028EE33E040E050E0CAD724E630E040E088
:1004200050E0C5D73F932F930F931F938CEB90E031
:100430009F938F939F928F926DD80FB6F894DEBFE3
:100440000FBECDBF42E0662DC401FBD02FCEC098B9
:10045000C19818D1C09A0895C098C19A13D1C09A72
:100460000895CF93DF93C0E0D0E080E0F5DF2196E0
:10047000C83F81E0D807C9F7DF91CF910895FBD03D
:10048000B89AB99A8F9ABA9A8FB581638FBD8EB593
:1004900089608EBD19BC18BCC09A979A9798979A94
:1004A00080E2D5DF8CE0D3DF81E2D1DF84E0CFDFF3
:1004B00083E1CDDF8BECCBDF08959798979A80E2AC
:1004C000C6DF8CE0C4DF81E2C2DF84E0C0DF83E10D
:1004D000BEDF8BECBCDF089590E099BD88BD089528
:1004E000CF93DF93C82FD62F80E2B1DFC43540F41D
:1004F000D63030F48C2F8068AADF8D2F8064A7DF80
:10050000DF91CF9108958F929F92AF92BF92CF9239
:10051000DF92EF92FF920F931F93CF93DF93CDB7AC
:10052000DEB764970FB6F894DEBF0FBECDBF962E30
:10053000842EFE01319694E1DF011D929A95E9F730
:1005400090E05C01AA0CBB1CAA0CBB1C8A0D9B1D75
:100550009C012C5D3F4F59018F017E0135E1E30E77
:10056000F11CCC24C394D12C31C09D01082E02C0B3
:10057000359527950A94E2F720FF1EC09C01220FB3
:10058000331FA60102C0440F551F2A95E2F79601BA
:10059000062E02C0220F331F0A94E2F7242B352BBC
:1005A00040815181242B352B31832083428153811B
:1005B000242B352B3383228301966E5F7F4F883047
:1005C000910599F63496EE15FF0551F0D5018D9100
:1005D0005D01A82FB0E061E070E080E090E0C5CF61
:1005E000880C692D660F862F880F880F680F960E6E
:1005F000BB24B394B80CF801C080D1800E5F1F4FAC
:10060000682D892D6DDF8C2D27DF6B2D892D68DFFF
:100610008D2D22DF93940E151F0569F764960FB692
:10062000F894DEBF0FBECDBFDF91CF911F910F9128
:10063000FF90EF90DF90CF90BF90AF909F908F9002
:1006400008950F931F93CF93DF93FC01808188233C
:1006500069F0D42F8F01C0E04D2F6C2F54DFCF5F96
:10066000F801EC0FF11D80818111F6CFDF91CF9160
:100670001F910F91089587B38C6287BB8DB1806500
:100680008DB908956E9A8FB9779BFECF6E980895B5
:1006900081B181B181B1887F90E0803A910514F4F5
:1006A00081B101C081B18091AD028F5F8093AD02B5
:1006B000089580B9643018F481B1682B61B9089548
:1006C0009091AD02911113C083B984E886BF06B63C
:1006D00007FEFDCF81B1887F883249F081B1887FE4
:1006E000803429F081B1887F883109F0D1DF089505
:1006F0008091AD0281110EC084EA86BF06B607FE66
:10070000FDCF81B1887F883029F081B1887F803129
:1007100009F0BEDF08958091AD02811102C084E925
:1007200086BF08958091AD0281110AC084EC86BF16
:1007300006B607FEFDCF81B1887F803509F0A8DFBE
:1007400083B108958091AD0281110AC084E886BF0B
:1007500006B607FEFDCF81B1887F883509F098DFA6
:1007600083B108955F9BFECF8CB10895E8ECF2E071
:1007700085EE92E01192E817F907E1F708951F92CC
:100780000F920FB60F9211242F933F934F935F93C5
:100790006F937F938F939F93AF93BF93CF93EF9379
:1007A000FF931092AF02C091AE02C11101C0DEDF13
:1007B000D9DF8A3051F0EC2FF0E0E853FD4F808311
:1007C000E1E0EC0FE093AE020BC0EC2FF0E0E85359
:1007D000FD4F8AE080831092AE0281E08093AF02E9
:1007E000FF91EF91CF91BF91AF919F918F917F91A9
:1007F0006F915F914F913F912F910F900FBE0F908E
:100800001F901895CF92DF92EF92FF920F931F9354
:10081000662319F0613051F152C0C090B402D090FB
:10082000B502E090B602F090B702BC01990F880BB8
:10083000990B93D4A7019601F4D320E030E040E077
:100840005FE33FD5A7019601EDD3062F172F282F81
:10085000392F0093B4021093B5022093B60230935F
:10086000B702562F472F382F292F29C0C090B0022A
:10087000D090B102E090B202F090B302BC01990FA7
:10088000880B990B6AD4A7019601CBD320E030E006
:1008900040E05FE316D5A7019601C4D3062F172FBA
:1008A000282F392F0093B0021093B1022093B20287
:1008B0003093B302562F472F382F292F00C0652FB2
:1008C000742F832F922F1F910F91FF90EF90DF9045
:1008D000CF9008958F929F92AF92BF92CF92DF9266
:1008E000EF92FF9280E090E726D361E08BDF6B010F
:1008F0007C016091600070916100072E000C880BF4
:10090000990B2BD44B015C019B01AC01C701B601D3
:10091000EDD388230CF412C1A5019401C701B601DF
:10092000CCD48823ECF06091620070916300072EB4
:10093000000C880B990B11D49B01AC01C701B601C7
:10094000D5D388236CF42DE13AE544E95FE3C70190
:10095000B601B7D424E43BE84EE552E463D3F1C0DA
:100960006091620070916300072E000C880B990B58
:10097000F4D39B01AC01C701B6019FD48823ECF0EE
:100980006091640070916500072E000C880B990B34
:10099000E4D39B01AC01C701B601A8D388236CF452
:1009A00022EB3DE94FE85FE3C701B6018AD423ECAF
:1009B00035EF4DE552E436D3C4C0609164007091C8
:1009C0006500072E000C880B990BC7D39B01AC0167
:1009D000C701B60172D48823ECF060916600709173
:1009E0006700072E000C880B990BB7D39B01AC0155
:1009F000C701B6017BD388236CF421E230EB42E9D6
:100A00005FE3C701B6015DD42DE232EB49E552E464
:100A100009D397C06091660070916700072E000CA3
:100A2000880B990B9AD39B01AC01C701B60145D441
:100A30008823ECF06091680070916900072E000C2B
:100A4000880B990B8AD39B01AC01C701B6014ED329
:100A500088236CF42CE53FE842E95FE3C701B60167
:100A600030D428E539E34BE552E4DCD26AC060912A
:100A7000680070916900072E000C880B990B6DD3EC
:100A80009B01AC01C701B60118D48823ECF060913A
:100A90006A0070916B00072E000C880B990B5DD3D8
:100AA0009B01AC01C701B60121D388236CF42AE471
:100AB0003CE042E95FE3C701B60103D420E635EE2E
:100AC00049E652E4AFD23DC060916A0070916B007C
:100AD000072E000C880B990B40D39B01AC01C7017A
:100AE000B601EBD38823ECF060916C0070916D003F
:100AF000072E000C880B990B30D39B01AC01C7016A
:100B0000B601F4D288236CF427E339E841E95FE3C6
:100B1000C701B601D6D326E636EA42E852E482D2CD
:100B200010C022EB3DE94FE85FE3C701B601C9D32E
:100B30002EE432E040E053E475D203C060E070E0A0
:100B4000CB01D8D2CB01FF90EF90DF90CF90BF9038
:100B5000AF909F908F9008958F929F92AF92BF9287
:100B6000CF92DF92EF92FF9280E090E6E4D160E0D6
:100B700049DE6B017C0160916E0070916F00072E61
:100B8000000C880B990BE9D24B015C019B01AC0175
:100B9000C701B601ABD288230CF4B8C0A5019401FB
:100BA000C701B6018AD38823ECF060917000709180
:100BB0007100072E000C880B990BCFD29B01AC0162
:100BC000C701B60193D288236CF42BE237E846E5DF
:100BD0005FE3C701B60175D32CEF39E24AE152E475
:100BE00021D297C06091700070917100072E000CA7
:100BF000880B990BB2D29B01AC01C701B6015DD342
:100C00008823ECF06091720070917300072E000C45
:100C1000880B990BA2D29B01AC01C701B60166D229
:100C200088236CF424EB38EC46E55FE3C701B6019A
:100C300048D320EF37EA4DEF51E4F4D16AC0609118
:100C4000720070917300072E000C880B990B85D2EF
:100C50009B01AC01C701B60130D38823ECF0609151
:100C6000740070917500072E000C880B990B75D2DB
:100C70009B01AC01C701B60139D288236CF424EB87
:100C800038EC46E55FE3C701B6011BD327E836E938
:100C900043E152E4C7D13DC060917400709175008A
:100CA000072E000C880B990B58D29B01AC01C70191
:100CB000B60103D38823ECF0609176007091770041
:100CC000072E000C880B990B48D29B01AC01C70181
:100CD000B6010CD288236CF424EB38EC46E55FE3D4
:100CE000C701B601EED22DEC3CE440E052E49AD1CB
:100CF00010C02BE237E846E55FE3C701B601E1D259
:100D000021EE3AE74BE752E48DD103C060E070E09A
:100D1000CB01F0D1072E000C880B990BFF90EF90C0
:100D2000DF90CF90BF90AF909F908F90089583B742
:100D3000856083BF6093C10289B7816089BF80915C
:100D4000C10282BF789408956BED85E0F0DF85E005
:100D50008093E60208952091B9023091BA02409141
:100D6000BB025091BC026091BD027091BE028091A5
:100D7000BF029091C00208951F920F920FB60F927A
:100D80001124AF92BF92CF92DF92EF92FF920F9316
:100D90001F932F933F934F935F936F937F938F9303
:100DA0009F93AF93BF93EF93FF938091C10282BF54
:100DB0008091E602882351F12091E602A090B902C9
:100DC000B090BA02C090BB02D090BC02E090BD02CD
:100DD000F090BE020091BF021091C00230E040E0EE
:100DE00050E060E070E080E090E04CD32093B902E6
:100DF0003093BA024093BB025093BC026093BD0291
:100E00007093BE028093BF029093C0028091B8029B
:100E1000823021F41092B802BBD003C08F5F809360
:100E2000B802FF91EF91BF91AF919F918F917F9108
:100E30006F915F914F913F912F911F910F91FF9073
:100E4000EF90DF90CF90BF90AF900F900FBE0F90BC
:100E50001F901895CF93DF93C82F4ADC80E930DCD0
:100E60008C2F2EDC45DC81E92BDC5CDCD82F6ADCA6
:100E7000C82F51DC8C2F90E09D2BDF91CF910895EE
:100E80001F93CF93DF93182FC62FD72F31DC80E924
:100E900017DC812F15DC8D2F13DC8C2F11DC3BDC54
:100EA000DF91CF911F910895CF93DF93EC0160E024
:100EB00082E0FFDBBE0181E0E3DF83E0CBDFBC014A
:100EC000706883E0DDDF82E0C5DFBC017F7782E010
:100ED000D7DFDF91CF910895CF93DF939C013F7EC1
:100EE0002115310559F0211540E2340739F021155B
:100EF00040E4340719F02115304649F4EC0181E053
:100F0000A9DF9F78BC016C2B7D2B81E0B9DFDF91DD
:100F1000CF91089581E09EDFBC01706881E0B0DF71
:100F2000089580E097DF089581E094DF892F881F7E
:100F30008827881F0895D0DFEDDFF6DF8823E9F3E7
:100F4000F0DF08958B98939A089580B383FB8827E8
:100F500080F991E08927089580917800813039F4F3
:100F60008091C302813029F41092C302089580E079
:100F7000089580E008958091C502811107C081E045
:100F80009091C402913019F080E0089580E00895B6
:100F90008091C5028093C402D8DF8093C50281305E
:100FA00069F48091C402813049F48091C602909125
:100FB000C70201969093C7028093C602DCDF8823A4
:100FC000F1F08091C6029091C702C297A0F480917F
:100FD000C202893148F48091C3028F5F8093C302BB
:100FE0001092C202109278001092C7021092C602AC
:100FF000C2DF882321F01092C7021092C6028091AE
:10100000C202893130F081E0809378001092C202F0
:10101000089590917800911103C08F5F8093C20270
:1010200008955058BB27AA270ED00DC1FED030F02E
:1010300003D120F031F49F3F11F41EF4F3C00EF4FD
:10104000E095E7FBE9C0E92F0FD180F3BA176207FB
:1010500073078407950718F071F49EF527C10EF405
:10106000E0950B2EBA2FA02D0B01B90190010C01B8
:10107000CA01A0011124FF27591B99F0593F50F4D0
:10108000503E68F11A16F040A22F232F342F442728
:10109000585FF3CF469537952795A795F040539520
:1010A000C9F77EF41F16BA0B620B730B840BBAF0F0
:1010B0009150A1F0FF0FBB1F661F771F881FC2F75B
:1010C0000EC0BA0F621F731F841F48F4879577956F
:1010D0006795B795F7959E3F08F0B3CF9395880F26
:1010E00008F09927EE0F97958795089571D008F429
:1010F00081E0089504D06894B111D9C00895BCD09E
:1011000088F09F5790F0B92F9927B751A0F0D1F0F0
:10111000660F771F881F991F1AF0BA95C9F712C07A
:10112000B13081F0C3D0B1E00895C0C0672F782FEF
:101130008827B85F39F0B93FCCF3869577956795E6
:10114000B395D9F73EF490958095709561957F4F52
:101150008F4F9F4F0895E89409C097FB3EF49095F8
:101160008095709561957F4F8F4F9F4F9923A9F080
:10117000F92F96E9BB279395F6958795779567950F
:10118000B795F111F8CFFAF4BB0F11F460FF1BC053
:101190006F5F7F4F8F4F9F4F16C0882311F096E9E6
:1011A00011C0772321F09EE8872F762F05C0662394
:1011B00071F096E8862F70E060E02AF09A95660F4D
:1011C000771F881FDAF7880F9695879597F9089506
:1011D000990F0008550FAA0BE0E8FEEF1616170648
:1011E000E807F907C0F012161306E407F50798F0B0
:1011F000621B730B840B950B39F40A2661F0232BC9
:10120000242B252B21F408950A2609F4A140A69544
:101210008FEF811D811D089597F99F6780E870E029
:1012200060E008959FEF80EC089500240A9416165C
:10123000170618060906089500240A9412161306C4
:10124000140605060895092E0394000C11F4882352
:1012500052F0BB0F40F4BF2B11F460FF04C06F5F6E
:101260007F4F8F4F9F4F089557FD9058440F551F44
:1012700059F05F3F71F04795880F97FB991F61F018
:101280009F3F79F087950895121613061406551F8F
:10129000F2CF4695F1DF08C0161617061806991FFB
:1012A000F1CF86957105610508940895E894BB27F0
:1012B00066277727CB0197F908958ADF08F48FEF27
:1012C00008950BD0C0CFB1DF28F0B6DF18F095231A
:1012D00009F0A2CFA7CF1124EACFC6DFA0F3959FD4
:1012E000D1F3950F50E0551F629FF001729FBB270D
:1012F000F00DB11D639FAA27F00DB11DAA1F649FB9
:101300006627B00DA11D661F829F2227B00DA11D6B
:10131000621F739FB00DA11D621F839FA00D611DF1
:10132000221F749F3327A00D611D231F849F600D12
:10133000211D822F762F6A2F11249F5750408AF04B
:10134000E1F088234AF0EE0FFF1FBB1F661F771FD7
:10135000881F91505040A9F79E3F510570F05CCF17
:10136000A6CF5F3FECF3983EDCF3869577956795C3
:10137000B795F795E7959F5FC1F7FE2B880F911DF5
:101380009695879597F9089597FB072E16F4009484
:1013900006D077FD08D088D007FC05D03EF49095A4
:1013A00081959F4F0895709561957F4F0895052E03
:1013B00097FB16F400940FD057FD05D089D007FC99
:1013C00002D046F408C050954095309521953F4F86
:1013D0004F4F5F4F089590958095709561957F4F21
:1013E0008F4F9F4F089505D0332312F48A1B9B0B18
:1013F0000DC0A29FB001B39FC001A39F01D0B29FB7
:10140000700D811D1124911D0895F3DFB7FF08951C
:10141000821B930B08952F923F924F925F926F928F
:101420007F928F929F92AF92BF92CF92DF92EF9274
:10143000FF920F931F93CF93DF93CDB7DEB7CA1BF5
:10144000DB0B0FB6F894DEBF0FBECDBF09942A8820
:10145000398848885F846E847D848C849B84AA84C8
:10146000B984C884DF80EE80FD800C811B81AA8155
:10147000B981CE0FD11D0FB6F894DEBF0FBECDBF20
:10148000ED0108952A0D3B1D4C1D5D1D6E1D7F1D38
:10149000801F911F08952A193B094C095D096E09A7
:1014A0007F09800B910B0895AA1BBB1B51E107C05C
:1014B000AA1FBB1FA617B70710F0A61BB70B881FE4
:1014C000991F5A95A9F780959095BC01CD01089573
:1014D000A1E21A2EAA1BBB1BFD010DC0AA1FBB1F38
:1014E000EE1FFF1FA217B307E407F50720F0A21BAA
:1014F000B30BE40BF50B661F771F881F991F1A9417
:1015000069F760957095809590959B01AC01BD0140
:10151000CF010895AEE0B0E0EFE8FAE08ACF0D89A0
:101520001E8986E08C831A8309838FEF9FE79E8351
:101530008D83AE01475E5F4F6F89788DCE01019636
:1015400008D0EF81F885E00FF11F10822E96E4E0BD
:101550008CCFABE0B0E0EEEAFAE05DCF6C017B014E
:101560008A01FC0117821682838181FFBFC1CE01EF
:1015700001963C01F6019381F70193FD859193FF5C
:1015800081917F01882309F4ADC1853239F493FD3F
:10159000859193FF81917F01853221F4B60190E01E
:1015A000C0D1E8CF912C212C312CFFE1F315D8F0DC
:1015B0008B3279F038F4803279F08332A1F4232D24
:1015C00020611DC08D3261F0803369F4232D2160CC
:1015D00016C0832D8260382EE32DE4603E2E2AC093
:1015E000F32DF8601DC037FC2DC020ED280F2A30E8
:1015F00040F08E32B9F436FC75C1232D2064322EB2
:1016000019C036FE06C08AE0989E200D1124922E45
:1016100011C0EAE02E9E200D1124222EF32DF0623F
:101620003F2E08C08C3621F4832D8068382E02C0EE
:10163000883641F4F70193FD859193FF81917F01F5
:101640008111B3CF982F9F7D9554933028F40C5F70
:101650001F4F9FE399830DC0833631F0833771F0BC
:10166000833509F055C020C0F801808189830E5F61
:101670001F4F88248394912C530112C02801F2E05B
:101680004F0E511CF801A080B18036FE03C0692DB9
:1016900070E002C06FEF7FEFC50138D14C018201CD
:1016A000F32DFF773F2E15C0280122E0420E511C7A
:1016B000F801A080B18036FE03C0692D70E002C041
:1016C0006FEF7FEFC50117D14C01F32DF0683F2E6E
:1016D000820133FC19C0822D90E088169906A0F48F
:1016E000B60180E290E01DD12A94F5CFF50137FCD8
:1016F000859137FE81915F01B60190E012D12110F2
:101700002A9421E0821A91088114910479F7E1C0AA
:10171000843611F0893639F5F80137FE07C060814B
:101720007181828193810C5F1F4F08C0608171813C
:10173000072E000C880B990B0E5F1F4FF32DFF76C1
:101740003F2E97FF09C090958095709561957F4FCA
:101750008F4F9F4FF0683F2E2AE030E0A3011DD14C
:10176000882E861844C0853731F4232D2F7EB22E63
:101770002AE030E025C0932D997FB92E8F36C1F035
:1017800018F4883579F0AEC0803719F0883721F029
:10179000A9C0E92FE061BE2EB4FE0DC0FB2DF460A0
:1017A000BF2E09C034FE0AC0292F2660B22E06C003
:1017B00028E030E005C020E130E002C020E132E066
:1017C000F801B7FE07C060817181828193810C5F4F
:1017D0001F4F06C06081718180E090E00E5F1F4F57
:1017E000A301DBD0882E8618FB2DFF773F2E36FE17
:1017F0000DC0232D2E7FA22E891458F434FE0BC069
:1018000032FC09C0832D8E7EA82E05C0B82CA32CD7
:1018100003C0B82C01C0B92CA4FE0FC0FE01E80D16
:10182000F11D8081803321F49A2D997EA92E09C063
:10183000A2FE06C0B394B39404C08A2D867809F042
:10184000B394A3FC10C0A0FE06C0B21480F4280C10
:10185000922C9B180DC0B21458F4B60180E290E0AF
:1018600060D0B394F8CFB21418F42B1802C0982C9F
:10187000212CA4FE0FC0B60180E390E052D0A2FE5E
:1018800016C0A1FC03C088E790E002C088E590E0A4
:10189000B6010CC08A2D867851F0A1FE02C08BE201
:1018A00001C080E2A7FC8DE2B60190E03AD0891435
:1018B00030F4B60180E390E034D09A94F8CF8A9463
:1018C000F301E80DF11D8081B60190E02AD081106E
:1018D000F6CF222009F44ECEB60180E290E021D06E
:1018E0002A94F7CFF6018681978102C08FEF9FEF90
:1018F0002B96E2E1ACCDFC010590615070400110E7
:10190000D8F7809590958E0F9F1F0895FC01615028
:10191000704001900110D8F7809590958E0F9F1F11
:1019200008950F931F93CF93DF93FB01238121FD34
:1019300003C08FEF9FEF2CC022FF16C04681578156
:10194000248135814217530744F4A081B1819D0160
:101950002F5F3F4F318320838C93268137812F5F08
:101960003F4F3783268314C08B01EC01FB010084B9
:10197000F185E02D0995892BE1F6D80116968D9118
:101980009C911797019617969C938E931697CE016C
:10199000DF91CF911F910F910895FA01AA27283066
:1019A00051F1203181F1E8946F936E7F6E5F7F4F2C
:1019B0008F4F9F4FAF4FB1E03ED0B4E03CD0670FA8
:1019C000781F891F9A1FA11D680F791F8A1F911DFB
:1019D000A11D6A0F711D811D911DA11D20D009F44B
:1019E00068943F912AE0269F11243019305D31938D
:1019F000DEF6CF010895462F4770405D4193B3E076
:101A00000FD0C9F7F6CF462F4F70405D4A3318F01C
:101A1000495D31FD4052419302D0A9F7EACFB4E0CD
:101A2000A6959795879577956795BA95C9F7009785
:101A30006105710508959B01AC010A2E0694579526
:101A4000479537952795BA95C9F7620F731F841F7D
:0A1A5000951FA01D0895F894FFCF24
:101A5A00D0FFFCFF2D008A013C03A606FE10D2FF30
:101A6A007D168C2CE8424E5901553D302E303025DA
:101A7A006400553D302E30256400553D25642E25E1
:101A8A006400493D302E3030256400493D302E3007
:101A9A00256400493D25642E256400503D302E30D2
:101AAA0030256400503D302E30256400503D2564B9
:101ABA002E256400000000000000005F00000007FF
:101ACA00000700147F147F14242A7F2A1223130884
:101ADA00646236495522500005030000001C224169
:101AEA00000041221C0014083E081408083E080899
:101AFA000050300000080808080800606000002054
:101B0A00100804023E5149453E00427F40004261AE
:101B1A005149462141454B311814127F102745453A
:101B2A0045393C4A49493001710905033649494951
:101B3A0036064949291E003636000000563600008E
:101B4A000814224100141414141400412214080227
:101B5A0001510906324979413E7E1111117E7F49B0
:101B6A004949363E414141227F4141221C7F494930
:101B7A0049417F090909013E4149497A7F08080814
:101B8A007F00417F41002040413F017F08142241EC
:101B9A007F404040407F020C027F7F0408107F3E56
:101BAA004141413E7F090909063E4151215E7F09B3
:101BBA00192946464949493101017F01013F4040FF
:101BCA00403F1F2040201F3F4038403F6314081405
:101BDA006307087008076151494543007F41410086
:101BEA0002040810200041417F000402010204405F
:101BFA0040404040000102040020545454787F4879
:101C0A004444383844444420384444487F3854547F
:101C1A005418087E0901020C5252523E7F080404ED
:101C2A007800447D40002040443D007F1028440055
:101C3A0000417F40007C041804787C08040478384A
:101C4A00444444387C14141408081414187C7C087E
:101C5A000404084854545420043F4440203C404063
:101C6A00207C1C2040201C3C4030403C442810284A
:101C7A00440C5050503C4464544C440008364100D3
:101C8A0000007F000000413608001008081008789C
:041C9A004641467801
:00000001FF
