:1000000012C02CC02BC02AC029C028C027C026C0BF
:1000100025C031C323C09AC221C020C01FC01EC04A
:100020001DC01CC01BC011241FBECFE5D4E0DEBF25
:10003000CDBF12E0A0E6B0E0ECECFAE002C0059023
:100040000D92AA34B107D9F722E0AAE4B2E001C0C8
:100050001D92AD37B207E1F702D036C5D1CF80E2AD
:100060009BE05ED0C4D080E090E6A2D06C0180E03E
:1000700090E79ED07C01C601ACD24B015C01C70168
:10008000D1D26B017C0160E080E010D180E690E08D
:10009000F8D0C501B401AFD3072E000C880B990B23
:1000A00019D183E690E0EDD061E080E0FFD087E6F3
:1000B00090E0E7D0C701B6019ED3072E000C880B55
:1000C000990B08D183E690E0DCD0CDCFCF93DF93BE
:1000D000C82FF5D180E9DBD18C2FD9D1F0D181E9BE
:1000E000D6D107D2D82F15D2C82FFCD18C2F90E0B3
:1000F0009D2BDF91CF9108951F93CF93DF93182FFE
:10010000C62FD72FDCD180E9C2D1812FC0D18D2F4E
:10011000BED18C2FBCD1E6D1DF91CF911F91089534
:10012000CF93DF93EC0160E082E0AAD1BE0181E0D1
:10013000E3DF83E0CBDFBC01706883E0DDDF82E0DA
:10014000C5DFBC017F7782E0D7DF81E0DF91CF910F
:100150000895CF93DF939C013F7E2115310559F01F
:10016000211540E2340739F0211540E4340719F035
:100170002115304649F4EC0181E0A8DF9F78BC01ED
:100180006C2B7D2B81E0B8DFDF91CF91089581E06A
:100190009DDFBC01706881E0AFDF089580E096DFED
:1001A000089581E093DF892F881F8827881F08958D
:1001B000D0DFEDDFF6DF8823E9F3F0DF0895C098A4
:1001C000C19847D1C09A0895C098C19A42D1C09AA7
:1001D0000895CF93DF93C0E0D0E080E0F5DF219673
:1001E000C83F81E0D807C9F7DF91CF9108952AD1A0
:1001F000B89AB99A8F9ABA9AC29AC09A979A9798C7
:10020000979A81E2DCDF8AEBDADF84E0D8DF84E1F1
:10021000D6DF80E2D4DF8CE0D2DFDBDF0895CF933E
:10022000DF93C82FD62F80E2CADFC43540F4D63022
:1002300030F48C2F8068C3DF8D2F8064C0DFDF91A6
:10024000CF9108950F931F93CF93DF9390E0EC012C
:10025000CC0FDD1FCC0FDD1F8C0F9D1FEC01C65393
:10026000D04000E010E08991AFDF0F5F1F4F0530F5
:100270001105C9F780E0A8DFDF91CF911F910F91A1
:1002800008950F931F93CF93FC018081882351F031
:100290008F01C0E0D7DFCF5FF801EC0FF11D808147
:1002A0008111F8CFCF911F910F910895282F30E041
:1002B000A901440F551F440F551F240F351F213529
:1002C00031053CF4663028F4982F990F990F890F67
:1002D000A6DF08954F925F926F927F92AF92BF9286
:1002E000CF92DF92EF92FF921F93CF93DF93CDB720
:1002F000DEB72B970FB6F894DEBF0FBECDBF2B0134
:100300003C01611571058105910519F480E39ADFBF
:1003100085C0992354F48DE295DF709460945094D5
:100320004094411C511C611C711CFE013196CE0190
:100330000B9611928E179F07E1F741145104610447
:100340007104A9F1A30192011AE0C12CD12C76010C
:10035000C394AA24A394B12CAC0EBD1EA10EB11C53
:10036000CA01B9012AE030E040E050E066D3605DA8
:10037000D5016C93CC0CDD1CEE1CFF1CD701C60113
:10038000880F991FAA1FBB1F880F991FAA1FBB1F89
:10039000C80ED91EEA1EFB1E1150C301B201A701EF
:1003A00096014BD3211531054105510591F68981FF
:1003B000811112C08F5F482F50E0E1E0F0E0EC0FB8
:1003C000FD1FE40FF51F90819923A1F36BE070E00E
:1003D000681B710929F41FC040E050E06BE070E039
:1003E00020E0822F90E0FC01E40FF51FA1E0B0E0D7
:1003F000AC0FBD1FEA0FFB1F3081A1E0B0E0AC0FD6
:10040000BD1FA80FB91F3C9310822F5F822F90E071
:100410008617970730F3CE01019633DF2B960FB680
:10042000F894DEBF0FBECDBFDF91CF911F91FF903B
:10043000EF90DF90CF90BF90AF907F906F905F90E4
:100440004F90089587B38C6287BB8DB180658DB95D
:1004500008956E9A8FB9779BFECF6E98089581B1FB
:1004600081B181B1887F90E0803A910514F481B127
:1004700001C081B180914A028F5F80934A02089542
:1004800080B9643018F481B1682B61B908959091F6
:100490004A02911113C083B984E886BF06B607FEED
:1004A000FDCF81B1887F883249F081B1887F803467
:1004B00029F081B1887F883109F0D1DF08958091DA
:1004C0004A0281110EC084EA86BF06B607FEFDCF40
:1004D00081B1887F883029F081B1887F803109F02F
:1004E000BEDF089580914A02811102C084E986BF6F
:1004F000089580914A0281110AC084EC86BF06B635
:1005000007FEFDCF81B1887F803509F0A8DF83B178
:10051000089580914A0281110AC084E886BF06B618
:1005200007FEFDCF81B1887F883509F098DF83B160
:1005300008955F9BFECF8CB10895EEE5F2E08BE766
:1005400092E01192E817F907E1F708951F920F92D0
:100550000FB60F9211242F933F934F935F936F9396
:100560007F938F939F93AF93BF93CF93EF93FF931B
:1005700010924C02C0914B02C11101C0DEDFD9DFE5
:100580008A3051F0EC2FF0E0E25AFD4F8083E1E039
:10059000EC0FE0934B020BC0EC2FF0E0E25AFD4F62
:1005A0008AE0808310924B0281E080934C02FF919D
:1005B000EF91CF91BF91AF919F918F917F916F916B
:1005C0005F914F913F912F910F900FBE0F901F9011
:1005D0001895CF92DF92EF92FF92C0905102D09087
:1005E0005202E0905302F0905402BC01990F880B24
:1005F000990B34D1A701960199D02DEC3CEC4CEC31
:100600005EE3B8D1A701960192D060935102709336
:1006100052028093530290935402FF90EF90DF9028
:10062000CF900895CF92DF92EF92FF92C0904D024B
:10063000D0904E02E0904F02F0905002BC01990F12
:10064000880B990B0BD1A701960170D02DEC3CECD7
:100650004CEC5EE38FD1A701960169D060934D0207
:1006600070934E0280934F0290935002FF90EF9050
:10067000DF90CF9008951F920F920FB60F92112422
:10068000AF92BF92CF92DF92EF92FF920F931F93A0
:100690002F933F934F935F936F937F938F939F938A
:1006A00080915D0282BF80917C02882351F120916C
:1006B0007C02A0905502B0905602C0905702D09094
:1006C0005802E0905902F0905A0200915B0210919A
:1006D0005C0230E040E050E060E070E080E090E0FC
:1006E000C8D120935502309356024093570250933D
:1006F00058026093590270935A0280935B02909360
:100700005C029F918F917F916F915F914F913F918B
:100710002F911F910F91FF90EF90DF90CF90BF909E
:10072000AF900F900FBE0F901F9018955058BB2799
:10073000AA270ED0E5C0D6D030F0DBD020F031F4BF
:100740009F3F11F41EF4CBC00EF4E095E7FBC1C04F
:10075000E92FE7D080F3BA1762077307840795077C
:1007600018F071F49EF5FFC00EF4E0950B2EBA2F31
:10077000A02D0B01B90190010C01CA01A0011124A7
:10078000FF27591B99F0593F50F4503E68F11A1653
:10079000F040A22F232F342F4427585FF3CF4695E4
:1007A00037952795A795F0405395C9F77EF41F1606
:1007B000BA0B620B730B840BBAF09150A1F0FF0FD0
:1007C000BB1F661F771F881FC2F70EC0BA0F621FBC
:1007D000731F841F48F4879577956795B795F795AC
:1007E0009E3F08F0B3CF9395880F08F09927EE0F3E
:1007F00097958795089504D06894B111B5C0089570
:1008000098D088F09F5790F0B92F9927B751A0F052
:10081000D1F0660F771F881F991F1AF0BA95C9F794
:1008200012C0B13081F09FD0B1E008959CC0672F15
:10083000782F8827B85F39F0B93FCCF38695779544
:100840006795B395D9F73EF490958095709561952D
:100850007F4F8F4F9F4F0895E89409C097FB3EF458
:1008600090958095709561957F4F8F4F9F4F9923FD
:10087000A9F0F92F96E9BB279395F695879577957B
:100880006795B795F111F8CFFAF4BB0F11F460FF3B
:100890001BC06F5F7F4F8F4F9F4F16C0882311F093
:1008A00096E911C0772321F09EE8872F762F05C0A7
:1008B000662371F096E8862F70E060E02AF09A9542
:1008C000660F771F881FDAF7880F9695879597F937
:1008D000089597F99F6780E870E060E008959FEFC2
:1008E00080EC089500240A941616170618060906C7
:1008F000089500240A941216130614060506089596
:10090000092E0394000C11F4882352F0BB0F40F41D
:10091000BF2B11F460FF04C06F5F7F4F8F4F9F4F5D
:10092000089557FD9058440F551F59F05F3F71F0DF
:100930004795880F97FB991F61F09F3F79F0879546
:100940000895121613061406551FF2CF4695F1DFCF
:1009500008C0161617061806991FF1CF869571055F
:10096000610508940895E894BB2766277727CB0193
:1009700097F908950BD0C4CFB5DF28F0BADF18F08F
:10098000952309F0A6CFABCF1124EECFCADFA0F399
:10099000959FD1F3950F50E0551F629FF001729F14
:1009A000BB27F00DB11D639FAA27F00DB11DAA1F33
:1009B000649F6627B00DA11D661F829F2227B00D80
:1009C000A11D621F739FB00DA11D621F839FA00D0B
:1009D000611D221F749F3327A00D611D231F849F5B
:1009E000600D211D822F762F6A2F11249F575040B2
:1009F0008AF0E1F088234AF0EE0FFF1FBB1F661F4D
:100A0000771F881F91505040A9F79E3F510570F005
:100A100060CFAACF5F3FECF3983EDCF386957795E5
:100A20006795B795F795E7959F5FC1F7FE2B880F00
:100A3000911D9695879597F90895052E97FB16F4C5
:100A400000940FD057FD05D01DD007FC02D046F40E
:100A500008C050954095309521953F4F4F4F5F4FBF
:100A6000089590958095709561957F4F8F4F9F4F1A
:100A700008952A0D3B1D4C1D5D1D6E1D7F1D801FA1
:100A8000911F0895A1E21A2EAA1BBB1BFD010DC0E8
:100A9000AA1FBB1FEE1FFF1FA217B307E407F5072E
:100AA00020F0A21BB30BE40BF50B661F771F881F0A
:100AB000991F1A9469F760957095809590959B01A0
:0C0AC000AC01BD01CF010895F894FFCFF8
:100ACC00553D0020202000493D00000000000000A2
:100ADC00005F00000007000700147F147F14242A15
:100AEC007F2A1223130864623649552250000503ED
:100AFC000000001C2241000041221C0014083E088A
:100B0C001408083E080800503000000808080808BF
:100B1C00006060000020100804023E5149453E0070
:100B2C00427F400042615149462141454B311814E6
:100B3C00127F1027454545393C4A49493001710916
:100B4C0005033649494936064949291E00363600FF
:100B5C00000056360000081422410014141414141A
:100B6C0000412214080201510906324979413E7EA6
:100B7C001111117E7F494949363E414141227F4145
:100B8C0041221C7F494949417F090909013E4149DC
:100B9C00497A7F0808087F00417F41002040413F8F
:100BAC00017F081422417F404040407F020C027FAD
:100BBC007F0408107F3E4141413E7F090909063EF2
:100BCC004151215E7F0919294646494949310101A4
:100BDC007F01013F4040403F1F2040201F3F4038D5
:100BEC00403F6314081463070870080761514945B6
:100BFC0043007F41410002040810200041417F0066
:100C0C000402010204404040404000010204002064
:100C1C00545454787F48444438384444442038442D
:100C2C0044487F3854545418087E0901020C52521F
:100C3C00523E7F0804047800447D40002040443D2F
:100C4C00007F1028440000417F40007C0418047889
:100C5C007C0804047838444444387C141414080880
:100C6C001414187C7C080404084854545420043F81
:100C7C004440203C4040207C1C2040201C3C403008
:100C8C00403C44281028440C5050503C4464544C74
:100C9C0044000836410000007F0000004136080087
:0A0CAC001008081008784641467849
:00000001FF
