:1000000012C02CC02BC02AC029C028C027C026C0BF
:1000100025C024C023C09BC221C020C01FC01EC059
:100020001DC01CC01BC011241FBECFE5D4E0DEBF25
:10003000CDBF12E0A0E6B0E0E4E5FEE002C005902E
:100040000D92A23AB107D9F722E0A2EAB2E001C0CC
:100050001D92A33CB207E1F702D0FAC6D1CFC1D0BE
:1000600080E29BE055D004E610E0B4D2EC01D7D397
:100070006B017C0160E080E01AD188EB90E0F8D061
:10008000CE01B80180D6C601861B970BBC01072E96
:10009000000C880B990B1FD18BEB90E0E9D061E04D
:1000A00080E005D18FEB90E0E3D0BE01DD0F880B3F
:1000B000990B11D18BEB90E0DBD0D7CFCF93DF93AF
:1000C000C82FFED180E9E4D18C2FE2D1F9D181E9AA
:1000D000DFD110D2D82F1ED2C82F05D28C2F90E09E
:1000E0009D2BDF91CF9108951F93CF93DF93182F0E
:1000F000C62FD72FE5D180E9CBD1812FC9D18D2F44
:10010000C7D18C2FC5D1EFD1DF91CF911F91089529
:10011000CF93DF93EC0160E082E0B3D1BE0181E0D8
:10012000E3DF60E070E883E0DFDF60E070E082E062
:10013000DBDF30B321B381E090E002C0880F991F6C
:100140003A95E2F780959095822381BB81E0DF911B
:10015000CF910895CF93DF939C013F7E2115310508
:1001600059F0211540E2340739F0211540E43407F5
:1001700019F02115304649F4EC0181E09FDF9F78AA
:10018000BC016C2B7D2B81E0AFDFDF91CF91089517
:1001900081E094DFBC01706881E0A6DF089580E013
:1001A0008DDF089580B382FB882780F991E089274D
:1001B0000895C098C1984ED1C09A0895C098C19A28
:1001C00049D1C09A0895CF93DF93C0E0D0E080E09A
:1001D000F5DF2196C83F81E0D807C9F7DF91CF91BD
:1001E000089587B38B6A87BB2ED188B3816888BB9B
:1001F000C798C79A81E2DDDF8AEBDBDF84E0D9DFD5
:1002000084E1D7DF80E2D5DF8CE0D3DFDCDF089547
:10021000CF93DF93C82FD62F80E2CBDFC43540F4D5
:10022000D63030F48C2F8068C4DF8D2F8064C1DF1E
:10023000DF91CF9108950F931F93CF93DF9390E0B9
:10024000EC01CC0FDD1FCC0FDD1F8C0F9D1FEC01CF
:10025000CE5DDF4F00E010E08991B0DF0F5F1F4FF0
:1002600005301105C9F7DF91CF911F910F910895C6
:10027000EF92FF920F931F93CF93FC0120812223D3
:1002800081F07C018C01C0E080E098DFF801808182
:10029000D2DFCF5F87010C0F111DF8019081911102
:1002A000F3CFCF911F910F91FF90EF900895282FDA
:1002B00030E0A901440F551F440F551F240F351F6F
:1002C000213531053CF4663028F4982F990F990FA9
:1002D000890F9EDF08954F925F926F927F92AF9247
:1002E000BF92CF92DF92EF92FF921F93CF93DF9353
:1002F000CDB7DEB72B970FB6F894DEBF0FBECDBFDC
:100300002B013C01611571058105910519F480E30C
:1003100092DF85C0992354F48DE28DDF7094609450
:1003200050944094411C511C611C711CFE0131967B
:10033000CE010B9611928E179F07E1F741145104DD
:1003400061047104A9F1A30192011AE0C12CD12C1E
:100350007601C394AA24A394B12CAC0EBD1EA10EA9
:10036000B11CCA01B9012AE030E040E050E01ED5DE
:10037000605DD5016C93CC0CDD1CEE1CFF1CD7011D
:10038000C601880F991FAA1FBB1F880F991FAA1F9C
:10039000BB1FC80ED91EEA1EFB1E1150C301B201BD
:1003A000A701960103D5211531054105510591F6A7
:1003B0008981811112C08F5F482F50E0E1E0F0E0A9
:1003C000EC0FFD1FE40FF51F90819923A1F36BE063
:1003D00070E0681B710929F41FC040E050E06BE039
:1003E00070E020E0822F90E0FC01E40FF51FA1E017
:1003F000B0E0AC0FBD1FEA0FFB1F3081A1E0B0E001
:10040000AC0FBD1FA80FB91F3C9310822F5F822F26
:1004100090E08617970730F3CE01019629DF2B96DF
:100420000FB6F894DEBF0FBECDBFDF91CF911F9105
:10043000FF90EF90DF90CF90BF90AF907F906F9044
:100440005F904F90089587B38C6287BB8DB18065B4
:100450008DB908956E9A8FB9779BFECF6E980895E7
:1004600081B181B181B1887F90E0803A910514F427
:1004700081B101C081B18091A2028F5F8093A202FD
:10048000089580B9643018F481B1682B61B908957A
:100490009091A202911113C083B984E886BF06B679
:1004A00007FEFDCF81B1887F883249F081B1887F16
:1004B000803429F081B1887F883109F0D1DF089537
:1004C0008091A20281110EC084EA86BF06B607FEA3
:1004D000FDCF81B1887F883029F081B1887F80315C
:1004E00009F0BEDF08958091A202811102C084E963
:1004F00086BF08958091A20281110AC084EC86BF54
:1005000006B607FEFDCF81B1887F803509F0A8DFF0
:1005100083B108958091A20281110AC084E886BF48
:1005200006B607FEFDCF81B1887F883509F098DFD8
:1005300083B108955F9BFECF8CB10895E5EAF2E0A8
:1005400082EC92E01192E817F907E1F708951F9203
:100550000F920FB60F9211242F933F934F935F93F7
:100560006F937F938F939F93AF93BF93CF93EF93AB
:10057000FF931092A402C091A302C11101C0DEDF5B
:10058000D9DF8A3051F0EC2FF0E0EB55FD4F80833E
:10059000E1E0EC0FE093A3020BC0EC2FF0E0EB5591
:1005A000FD4F8AE080831092A30281E08093A40231
:1005B000FF91EF91CF91BF91AF919F918F917F91DB
:1005C0006F915F914F913F912F910F900FBE0F90C0
:1005D0001F901895CF92DF92EF92FF920F931F9387
:1005E000CF93DF93CDB7DEB764970FB6F894DEBF35
:1005F0000FBECDBF80E090E7ADDD8E010F5F1F4FD6
:100600007E0185E1E80EF11CC3DDCCDD8823E9F332
:10061000C6DDF801819391938F01EE15FF05A1F7D7
:1006200009851A85012E000C220B330B8B859C85C6
:10063000092E000CAA0BBB0B080F191F2A1F3B1F0A
:10064000D901C80133231CF40196A11DB11DB59534
:10065000A79597958795BC01990F880B990B7CD22C
:100660006B017C0120E030E04AE952E43ED21816EA
:10067000ACF0209178003091790040917A0050914F
:100680007B00C701B6011CD320916000309161004E
:100690004091620050916300C4D1B0C020E030E0CE
:1006A0004AE952E4C701B60107D31816F4F420E072
:1006B00030E04CE453E4C701B60117D21816ACF091
:1006C00020917C0030917D0040917E0050917F0010
:1006D000C701B601F5D220916400309165004091C8
:1006E0006600509167009DD189C020E030E04CE465
:1006F00053E4C701B601E0D21816F4F420E030E864
:100700004BED53E4C701B601F0D11816ACF02091BF
:100710008000309181004091820050918300C70198
:10072000B601CED2209168003091690040916A00F4
:1007300050916B0076D162C020E030E84BED53E47D
:10074000C701B601B9D21816F4F420E030E849E543
:1007500054E4C701B601C9D11816ACF02091840049
:10076000309185004091860050918700C701B60105
:10077000A7D220916C0030916D0040916E00509195
:100780006F004FD13BC020E030E849E554E4C70199
:10079000B60192D21816F4F420E038E64AE855E49F
:1007A000C701B601A2D11816ACF020918800309193
:1007B000890040918A0050918B00C701B60180D218
:1007C000209170003091710040917200509173003F
:1007D00028D114C020918C0030918D0040918E0062
:1007E00050918F00C701B6016BD2209174003091F7
:1007F0007500409176005091770013D17AD1CB01EA
:1008000064960FB6F894DEBF0FBECDBFDF91CF91D7
:100810001F910F91FF90EF90DF90CF900895CF92AE
:10082000DF92EF92FF920F931F93CF93DF93CDB799
:10083000DEB764970FB6F894DEBF0FBECDBF80E081
:1008400090E688DC8E010F5F1F4F7E0185E1E80E88
:10085000F11C9EDCA7DC8823E9F3A1DCF80181937D
:1008600091938F01EE15FF05A1F709851A85012ED9
:10087000000C220B330B8B859C85092E000CAA0BD8
:10088000BB0B080F191F2A1F3B1FD901C8013323B7
:100890001CF40196A11DB11DB595A7959795879557
:1008A000BC01990F880B990B57D16B017C0120E09B
:1008B00030EA4BEB55E419D11816ACF02091A400A6
:1008C0003091A5004091A6005091A700C701B60144
:1008D000F7D1209190003091910040919200509179
:1008E00093009FD089C020E030EA4BEB55E4C7016C
:1008F000B601E2D11816F4F420E034E84AE356E4F5
:10090000C701B601F2D01816ACF02091A8003091C2
:10091000A9004091AA005091AB00C701B601D0D107
:10092000209194003091950040919600509197004D
:1009300078D062C020E034E84AE356E4C701B6014B
:10094000BBD11816F4F420E034E64CE856E4C701B5
:10095000B601CBD01816ACF02091AC003091AD00B0
:100960004091AE005091AF00C701B601A9D12091CE
:1009700098003091990040919A0050919B0051D07D
:100980003BC020E034E64CE856E4C701B60194D100
:100990001816F4F420E036E84AEB56E4C701B60135
:1009A000A4D01816ACF02091B0003091B100409165
:1009B000B2005091B300C701B60182D120919C00D2
:1009C00030919D0040919E0050919F002AD014C00C
:1009D0002091B4003091B5004091B6005091B7001D
:1009E000C701B6016DD12091A0003091A1004091C6
:1009F000A2005091A30015D07CD0072E000C880BCC
:100A0000990B64960FB6F894DEBF0FBECDBFDF9191
:100A1000CF911F910F91FF90EF90DF90CF900895AD
:100A20005058BB27AA270ED00DC1FED030F003D1FD
:100A300020F031F49F3F11F41EF4F3C00EF4E09562
:100A4000E7FBE9C0E92F0FD180F3BA1762077307FC
:100A50008407950718F071F49EF527C10EF4E09510
:100A60000B2EBA2FA02D0B01B90190010C01CA0168
:100A7000A0011124FF27591B99F0593F50F4503E13
:100A800068F11A16F040A22F232F342F4427585F05
:100A9000F3CF469537952795A795F0405395C9F71D
:100AA0007EF41F16BA0B620B730B840BBAF09150D5
:100AB000A1F0FF0FBB1F661F771F881FC2F70EC074
:100AC000BA0F621F731F841F48F487957795679547
:100AD000B795F7959E3F08F0B3CF9395880F08F030
:100AE0009927EE0F97958795089571D008F481E0C6
:100AF000089504D06894B111D9C00895BCD088F08D
:100B00009F5790F0B92F9927B751A0F0D1F0660FF9
:100B1000771F881F991F1AF0BA95C9F712C0B13014
:100B200081F0C3D0B1E00895C0C0672F782F882727
:100B3000B85F39F0B93FCCF3869577956795B39553
:100B4000D9F73EF490958095709561957F4F8F4FC2
:100B50009F4F0895E89409C097FB3EF490958095C7
:100B6000709561957F4F8F4F9F4F9923A9F0F92F73
:100B700096E9BB279395F695879577956795B795F1
:100B8000F111F8CFFAF4BB0F11F460FF1BC06F5FD7
:100B90007F4F8F4F9F4F16C0882311F096E911C0E9
:100BA000772321F09EE8872F762F05C0662371F00A
:100BB00096E8862F70E060E02AF09A95660F771F1E
:100BC000881FDAF7880F9695879597F90895990FFA
:100BD0000008550FAA0BE0E8FEEF16161706E80707
:100BE000F907C0F012161306E407F50798F0621B28
:100BF000730B840B950B39F40A2661F0232B242BFD
:100C0000252B21F408950A2609F4A140A6958FEF1B
:100C1000811D811D089597F99F6780E870E060E06D
:100C200008959FEF80EC089500240A941616170685
:100C300018060906089500240A94121613061406CD
:100C400005060895092E0394000C11F4882352F030
:100C5000BB0F40F4BF2B11F460FF04C06F5F7F4FE8
:100C60008F4F9F4F089557FD9058440F551F59F0CF
:100C70005F3F71F04795880F97FB991F61F09F3F89
:100C800079F087950895121613061406551FF2CFB2
:100C90004695F1DF08C0161617061806991FF1CF02
:100CA00086957105610508940895E894BB27662729
:100CB0007727CB0197F908958ADF08F48FEF08951D
:100CC0000BD0C0CFB1DF28F0B6DF18F0952309F0C4
:100CD000A2CFA7CF1124EACFC6DFA0F3959FD1F30F
:100CE000950F50E0551F629FF001729FBB27F00DDA
:100CF000B11D639FAA27F00DB11DAA1F649F66272F
:100D0000B00DA11D661F829F2227B00DA11D621F7D
:100D1000739FB00DA11D621F839FA00D611D221F37
:100D2000749F3327A00D611D231F849F600D211D1B
:100D3000822F762F6A2F11249F5750408AF0E1F0BE
:100D400088234AF0EE0FFF1FBB1F661F771F881F07
:100D500091505040A9F79E3F510570F05CCFA6CF4F
:100D60005F3FECF3983EDCF3869577956795B795F2
:100D7000F795E7959F5FC1F7FE2B880F911D96951C
:100D8000879597F9089597FB072E16F4009406D0DF
:100D900077FD08D027D007FC05D03EF490958195CB
:100DA0009F4F0895709561957F4F0895052E97FB8D
:100DB00016F400940FD057FD05D028D007FC02D0C0
:100DC00046F408C050954095309521953F4F4F4FC0
:100DD0005F4F089590958095709561957F4F8F4FE7
:100DE0009F4F0895AA1BBB1B51E107C0AA1FBB1F41
:100DF000A617B70710F0A61BB70B881F991F5A95A7
:100E0000A9F780959095BC01CD010895A1E21A2E15
:100E1000AA1BBB1BFD010DC0AA1FBB1FEE1FFF1F9E
:100E2000A217B307E407F50720F0A21BB30BE40BEE
:100E3000F50B661F771F881F991F1A9469F7609535
:100E40007095809590959B01AC01BD01CF010895EF
:040E5000F894FFCF44
:100E540054E359415A645141378963410E2D4E413F
:100E640021B0A041BE5F0643AE47913F0E2D923F95
:100E74007368913FC1CA913F9CC4903FA4708D3F59
:100E84000000E0406DE709C10456D6C085EB8141FE
:100E94001F8509C12B87563F3D0A573F3D0A573FDF
:100EA4002B87563FB4C8563F553D002020200049AB
:100EB4003D00000000000000005F00000007000784
:100EC40000147F147F14242A7F2A122313086462D7
:100ED40036495522500005030000001C2241000041
:100EE40041221C0014083E081408083E080800505B
:100EF400300000080808080800606000002010089E
:100F040004023E5149453E00427F4000426151493E
:100F1400462141454B311814127F10274545453968
:100F24003C4A4949300171090503364949493606A5
:100F34004949291E003636000000563600000814C0
:100F44002241001414141414004122140802015103
:100F54000906324979413E7E1111117E7F49494982
:100F6400363E414141227F4141221C7F494949414A
:100F74007F090909013E4149497A7F0808087F0031
:100F8400417F41002040413F017F081422417F40BE
:100F94004040407F020C027F7F0408107F3E4141A5
:100FA400413E7F090909063E4151215E7F09192905
:100FB40046464949493101017F01013F4040403FD4
:100FC4001F2040201F3F4038403F6314081463072C
:100FD400087008076151494543007F4141000204FC
:100FE4000810200041417F000402010204404040F7
:100FF4004040000102040020545454787F48444483
:10100400383844444420384444487F3854545418AD
:10101400087E0901020C5252523E7F0804047800F3
:10102400447D40002040443D007F1028440000419E
:101034007F40007C041804787C0804047838444415
:1010440044387C14141408081414187C7C08040410
:10105400084854545420043F4440203C4040207CE1
:101064001C2040201C3C4030403C44281028440CA8
:101074005050503C4464544C440008364100000035
:101084007F00000041360800100808100878464127
:0210940046789C
:00000001FF
