:1000000012C02CC02BC02AC029C028C027C026C0BF
:1000100025C0F6C623C00FC421C020C01FC01EC00B
:100020001DC01CC01BC011241FBECFE5D4E0DEBF25
:10003000CDBF12E0A0E6B0E0EEEEF8E102C0059020
:100040000D92A43AB107D9F722E0A4EAB2E001C0C8
:100050001D92AF3DB207E1F702D047CCD1CFCF938D
:10006000DF93CDB7DEB72B970FB6F894DEBF0FBE88
:10007000CDBFAED680E09BE002D268D259D20F2E1F
:10008000F7E07F2EF02DCE0101964C010F2EF9E8FE
:100090004F2EF0E05F2EF02D0F2EF2EA2F2EF0E023
:1000A0003F2EF02D9CD6A090A402B090A502C09047
:1000B000A602D090A702E090A802F090A9020091B9
:1000C000AA021091AB0231D9273E334041055105B8
:1000D000610571058105910599F090F080D6209316
:1000E000A4023093A5024093A6025093A702609306
:1000F000A8027093A9028093AA029093AB023DD20A
:1001000019D55C0104D48B019C01C50164E670E043
:1001100085D8061B170B9801D501AFD8688779875A
:100120008A879B8728EE33E040E050E08AD8690157
:100130007A01F401272D11922A95E9F70A30110569
:10014000A4F4C80168EE73E069D89F938F9388E7A1
:1001500090E09F938F939F928F9226D90F900F904C
:100160000F900F900F900F9045C004361105A4F426
:10017000C80168EE73E052D89F938F9381E890E0B6
:100180009F938F939F928F920FD90F900F900F9004
:100190000F900F900F902EC00031F7E21F079CF4D4
:1001A000C80168EE73E03AD89F938F937F936F9363
:1001B0005F924F929F928F92F7D80FB6F894DEBF5E
:1001C0000FBECDBF17C0C80168EE73E027D8262F39
:1001D000372F6AE070E022D87F936F933F932F937D
:1001E0005F924F929F928F92DFD80FB6F894DEBF46
:1001F0000FBECDBF40E060E0C4017FD2F401272DE7
:1002000011922A95E9F78AE0A816B104A4F4C50171
:1002100068EE73E003D89F938F9381E990E09F93FA
:100220008F939F928F92C0D80F900F900F900F9046
:100230000F900F9047C094E6A916B104A4F4C5012D
:1002400068EE73E0EBD79F938F938AE990E09F93DA
:100250008F939F928F92A8D80F900F900F900F902E
:100260000F900F902FC0E0E1AE16E7E2BE069CF4BF
:10027000C50168EE73E0D2D79F938F937F936F93FE
:100280003F922F929F928F928FD80FB6F894DEBF35
:100290000FBECDBF17C0C50168EE73E0BFD7262FD4
:1002A000372F6AE070E0BAD77F936F933F932F9315
:1002B0003F922F929F928F9277D80FB6F894DEBF1D
:1002C0000FBECDBF41E060E0C40117D2F401272D7D
:1002D00011922A95E9F78AE0C816D104E104F104E5
:1002E000BCF4C701B60128EE33E040E050E0A9D7E6
:1002F0007F936F938AEA90E09F938F939F928F9260
:1003000053D80F900F900F900F900F900F9088C0C0
:1003100094E6C916D104E104F104BCF4C701B601A6
:1003200028EE33E040E050E08CD77F936F9383EB6F
:1003300090E09F938F939F928F9236D80F900F905B
:100340000F900F900F900F906BC0688579858A850C
:100350009B8520E432E44FE050E073D7122F032F47
:10036000E0E1CE16E7E2DE06E104F104C4F4C701E1
:10037000B60128EE33E040E050E063D77F936F93FF
:100380000F931F938BEB90E09F938F939F928F928D
:100390000BD80FB6F894DEBF0FBECDBF41C090EAB8
:1003A000C91696E8D90691E0E906F104ECF4C70114
:1003B000B60128EE33E040E050E043D72AE030E0D9
:1003C00040E050E03ED73F932F930F931F938BEB6A
:1003D00090E09F938F939F928F92E6D70FB6F894F9
:1003E000DEBF0FBECDBF1CC0C701B60128EE33E093
:1003F00040E050E026D724E630E040E050E021D74E
:100400003F932F930F931F938BEB90E09F938F93CA
:100410009F928F92C9D70FB6F894DEBF0FBECDBFA3
:1004200042E060E0C40169D13DCECF93DF93C82F95
:10043000BBD180E9A1D18C2F9FD1B6D181E99CD1CC
:10044000CDD1D82FDBD1C82FC2D18C2F90E09D2BDE
:10045000DF91CF9108951F93CF93DF93182FC62F6D
:10046000D72FA2D180E988D1812F86D18D2F84D139
:100470008C2F82D1ACD1DF91CF911F910895CF9372
:10048000DF93EC0160E082E070D1BE0181E0E3DF48
:1004900083E0CBDFBC01706883E0DDDF82E0C5DF95
:1004A000BC017F7782E0D7DF81E0DF91CF910895B3
:1004B000CF93DF939C013F7E2115310559F0211523
:1004C00040E2340739F0211540E4340719F02115D2
:1004D000304649F4EC0181E0A8DF9F78BC016C2B29
:1004E0007D2B81E0B8DFDF91CF91089581E09DDF22
:1004F000BC01706881E0AFDF089580E096DF089569
:1005000081E093DF892F881F8827881F0895D0DF17
:10051000EDDFF6DF8823E9F3F0DF0895C098C19896
:100520000DD1C09A0895C098C19A08D1C09A089573
:10053000CF93DF93C0E0D0E080E0F5DF2196C83FA5
:1005400081E0D807C9F7DF91CF910895F0D0B89A2C
:10055000B99A8F9ABA9AC29AC09A979A9798979A84
:1005600081E2DCDF8AEBDADF84E0D8DF84E1D6DF0A
:1005700080E2D4DF8CE0D2DF08959798979A81E2E9
:10058000CDDF8AEBCBDF84E0C9DF84E1C7DF80E227
:10059000C5DF8CE0C3DF0895CF93DF93C82FD62F3C
:1005A00080E2BCDFC43540F4D63030F48C2F806854
:1005B000B5DF8D2F8064B2DFDF91CF9108958F92E8
:1005C0009F92AF92BF92CF92DF92EF92FF920F93E2
:1005D0001F93CF93DF93CDB7DEB764970FB6F89430
:1005E000DEBF0FBECDBF962E842EFE01319694E164
:1005F000DF011D929A95E9F790E05C01AA0CBB1C03
:10060000AA0CBB1C8A0D9B1D9C012D5D3F4F5901FF
:100610008F017E0135E1E30EF11CCC24C394D12C73
:1006200031C09D01082E02C0359527950A94E2F746
:1006300020FF1EC09C01220F331FA60102C0440FE1
:10064000551F2A95E2F79601062E02C0220F331F8E
:100650000A94E2F7242B352B40815181242B352B32
:100660003183208342815381242B352B3383228392
:1006700001966E5F7F4F8830910599F63496EE159E
:10068000FF0551F0D5018D915D01A82FB0E061E02B
:1006900070E080E090E0C5CF880C692D660F862F52
:1006A000880F880F680F960EBB24B394B80CF8011E
:1006B000C080D1800E5F1F4F682D892D6DDF8C2D7E
:1006C00032DF6B2D892D68DF8D2D2DDF93940E1574
:1006D0001F0569F764960FB6F894DEBF0FBECDBF55
:1006E000DF91CF911F910F91FF90EF90DF90CF900E
:1006F000BF90AF909F908F9008950F931F93CF93CB
:10070000DF93FC018081882369F0D42F8F01C0E042
:100710004D2F6C2F54DFCF5FF801EC0FF11D80815E
:100720008111F6CFDF91CF911F910F91089587B37B
:100730008C6287BB8DB180658DB908956E9A8FB933
:10074000779BFECF6E98089581B181B181B1887F8A
:1007500090E0803A910514F481B101C081B180919B
:10076000AC028F5F8093AC02089580B9643018F4B6
:1007700081B1682B61B908959091AC02911113C0B9
:1007800083B984E886BF06B607FEFDCF81B1887FB6
:10079000883249F081B1887F803429F081B1887F27
:1007A000883109F0D1DF08958091AC0281110EC02B
:1007B00084EA86BF06B607FEFDCF81B1887F883008
:1007C00029F081B1887F803109F0BEDF08958091E2
:1007D000AC02811102C084E986BF08958091AC0209
:1007E00081110AC084EC86BF06B607FEFDCF81B139
:1007F000887F803509F0A8DF83B108958091AC022D
:1008000081110AC084E886BF06B607FEFDCF81B11C
:10081000887F883509F098DF83B108955F9BFECF0C
:100820008CB10895E0ECF2E08DED92E01192E817C2
:10083000F907E1F708951F920F920FB60F92112456
:100840002F933F934F935F936F937F938F939F93D8
:10085000AF93BF93CF93EF93FF931092AE02C091EB
:10086000AD02C11101C0DEDFD9DF8A3051F0EC2FBB
:10087000F0E0E054FD4F8083E1E0EC0FE093AD0247
:100880000BC0EC2FF0E0E054FD4F8AE08083109223
:10089000AD0281E08093AE02FF91EF91CF91BF91C5
:1008A000AF919F918F917F916F915F914F913F9108
:1008B0002F910F900FBE0F901F901895CF92DF923F
:1008C000EF92FF92C090B302D090B402E090B502D4
:1008D000F090B602BC01990F880B990B88D3A70141
:1008E0009601E9D220E030E040E05FE334D4A70194
:1008F0009601E2D26093B3027093B4028093B50282
:100900009093B602FF90EF90DF90CF9008958F9272
:100910009F92AF92BF92CF92DF92EF92FF9280E0D0
:1009200090E6F5DDCBDF6B017C0160916E0070918C
:100930006F00072E000C880B990B59D34B015C01FB
:100940009B01AC01C701B6011BD388230CF4B8C0CE
:10095000A5019401C701B601FAD38823ECF0609198
:10096000700070917100072E000C880B990B3FD31B
:100970009B01AC01C701B60103D388236CF42BE2C1
:1009800037E846E55FE3C701B601E5D32CEF39E26E
:100990004AE152E491D297C0609170007091710069
:1009A000072E000C880B990B22D39B01AC01C701C9
:1009B000B601CDD38823ECF0609172007091730082
:1009C000072E000C880B990B12D39B01AC01C701B9
:1009D000B601D6D288236CF424EB38EC46E55FE30D
:1009E000C701B601B8D320EF37EA4DEF51E464D226
:1009F0006AC06091720070917300072E000C880B22
:100A0000990BF5D29B01AC01C701B601A0D3882395
:100A1000ECF06091740070917500072E000C880B4B
:100A2000990BE5D29B01AC01C701B601A9D288237D
:100A30006CF424EB38EC46E55FE3C701B6018BD3D9
:100A400027E836E943E152E437D23DC060917400B3
:100A500070917500072E000C880B990BC8D29B0172
:100A6000AC01C701B60173D38823ECF06091760026
:100A700070917700072E000C880B990BB8D29B0160
:100A8000AC01C701B6017CD288236CF424EB38ECAE
:100A900046E55FE3C701B6015ED32DEC3CE440E0E0
:100AA00052E40AD210C02BE237E846E55FE3C70103
:100AB000B60151D321EE3AE74BE752E4FDD103C032
:100AC00060E070E0CB0160D2072E000C880B990B20
:100AD000FF90EF90DF90CF90BF90AF909F908F905E
:100AE0000895CF92DF92EF92FF92C090AF02D09024
:100AF000B002E090B102F090B202BC01990F880BF5
:100B0000990B75D2A7019601D6D120E030E040E0E4
:100B10005FE321D3A7019601CFD16093AF02709319
:100B2000B0028093B1029093B202FF90EF90DF90F9
:100B3000CF9008958F929F92AF92BF92CF92DF9203
:100B4000EF92FF9280E090E7E2DCCBDF6B017C016B
:100B50006091600070916100072E000C880B990B6A
:100B600046D24B015C019B01AC01C701B60108D222
:100B700088230CF412C1A5019401C701B601E7D284
:100B80008823ECF06091620070916300072E000CE6
:100B9000880B990B2CD29B01AC01C701B601F0D197
:100BA00088236CF42DE13AE544E95FE3C701B6011F
:100BB000D2D224E43BE84EE552E47ED1F1C060910C
:100BC000620070916300072E000C880B990B0FD206
:100BD0009B01AC01C701B601BAD28823ECF0609149
:100BE000640070916500072E000C880B990BFFD1F3
:100BF0009B01AC01C701B601C3D188236CF422EB81
:100C00003DE94FE85FE3C701B601A5D223EC35EF1C
:100C10004DE552E451D1C4C060916400709165000B
:100C2000072E000C880B990BE2D19B01AC01C70188
:100C3000B6018DD28823ECF0609166007091670058
:100C4000072E000C880B990BD2D19B01AC01C70178
:100C5000B60196D188236CF421E230EB42E95FE3E0
:100C6000C701B60178D22DE232EB49E552E424D136
:100C700097C06091660070916700072E000C880B8A
:100C8000990BB5D19B01AC01C701B60160D2882395
:100C9000ECF06091680070916900072E000C880BE1
:100CA000990BA5D19B01AC01C701B60169D188237D
:100CB0006CF42CE53FE842E95FE3C701B6014BD293
:100CC00028E539E34BE552E4F7D06AC0609168004B
:100CD00070916900072E000C880B990B88D19B013D
:100CE000AC01C701B60133D28823ECF060916A00F1
:100CF00070916B00072E000C880B990B78D19B012B
:100D0000AC01C701B6013CD188236CF42AE43CE075
:100D100042E95FE3C701B6011ED220E635EE49E69F
:100D200052E4CAD03DC060916A0070916B00072EFA
:100D3000000C880B990B5BD19B01AC01C701B6017C
:100D400006D28823ECF060916C0070916D00072E44
:100D5000000C880B990B4BD19B01AC01C701B6016C
:100D60000FD188236CF427E339E841E95FE3C70139
:100D7000B601F1D126E636EA42E852E49DD010C031
:100D800022EB3DE94FE85FE3C701B601E4D12EE471
:100D900032E040E053E490D003C060E070E0CB016B
:100DA000F3D0CB01FF90EF90DF90CF90BF90AF904A
:100DB0009F908F90089583B7856083BF6093BF0233
:100DC00089B7816089BF8091BF0282BF78940895FE
:100DD0006BED85E0F0DF85E08093DE0208952091E1
:100DE000B7023091B8024091B9025091BA026091B5
:100DF000BB027091BC028091BD029091BE02089529
:100E00001F920F920FB60F921124AF92BF92CF9202
:100E1000DF92EF92FF920F931F932F933F934F9385
:100E20005F936F937F938F939F938091BF0282BF55
:100E30008091DE02882351F12091DE02A090B7025A
:100E4000B090B802C090B902D090BA02E090BB0254
:100E5000F090BC020091BD021091BE0230E040E073
:100E600050E060E070E080E090E056D22093B7025E
:100E70003093B8024093B9025093BA026093BB0218
:100E80007093BC028093BD029093BE029F918F919C
:100E90007F916F915F914F913F912F911F910F9192
:100EA000FF90EF90DF90CF90BF90AF900F900FBE6C
:100EB0000F901F9018955058BB27AA270ED00DC130
:100EC000FED030F003D120F031F49F3F11F41EF436
:100ED000F3C00EF4E095E7FBE9C0E92F0FD180F3F2
:100EE000BA17620773078407950718F071F49EF527
:100EF00027C10EF4E0950B2EBA2FA02D0B01B901DE
:100F000090010C01CA01A0011124FF27591B99F07F
:100F1000593F50F4503E68F11A16F040A22F232F8B
:100F2000342F4427585FF3CF469537952795A795DB
:100F3000F0405395C9F77EF41F16BA0B620B730B82
:100F4000840BBAF09150A1F0FF0FBB1F661F771FF3
:100F5000881FC2F70EC0BA0F621F731F841F48F4A8
:100F6000879577956795B795F7959E3F08F0B3CF2E
:100F70009395880F08F09927EE0F97958795089518
:100F800071D008F481E0089504D06894B111D9C0FB
:100F90000895BCD088F09F5790F0B92F9927B7518A
:100FA000A0F0D1F0660F771F881F991F1AF0BA952D
:100FB000C9F712C0B13081F0C3D0B1E00895C0C00C
:100FC000672F782F8827B85F39F0B93FCCF3869523
:100FD00077956795B395D9F73EF490958095709580
:100FE00061957F4F8F4F9F4F0895E89409C097FBFD
:100FF0003EF490958095709561957F4F8F4F9F4FF0
:101000009923A9F0F92F96E9BB279395F695879533
:1010100077956795B795F111F8CFFAF4BB0F11F4F6
:1010200060FF1BC06F5F7F4F8F4F9F4F16C088239D
:1010300011F096E911C0772321F09EE8872F762FD3
:1010400005C0662371F096E8862F70E060E02AF014
:101050009A95660F771F881FDAF7880F9695879500
:1010600097F90895990F0008550FAA0BE0E8FEEFD5
:1010700016161706E807F907C0F012161306E4075C
:10108000F50798F0621B730B840B950B39F40A2655
:1010900061F0232B242B252B21F408950A2609F433
:1010A000A140A6958FEF811D811D089597F99F6737
:1010B00080E870E060E008959FEF80EC08950024E0
:1010C0000A941616170618060906089500240A94AD
:1010D00012161306140605060895092E0394000C33
:1010E00011F4882352F0BB0F40F4BF2B11F460FFC2
:1010F00004C06F5F7F4F8F4F9F4F089557FD9058EB
:10110000440F551F59F05F3F71F04795880F97FBCB
:10111000991F61F09F3F79F0879508951216130685
:101120001406551FF2CF4695F1DF08C016161706B4
:101130001806991FF1CF86957105610508940895E9
:10114000E894BB2766277727CB0197F908958ADFB4
:1011500008F48FEF08950BD0C0CFB1DF28F0B6DFD1
:1011600018F0952309F0A2CFA7CF1124EACFC6DF4C
:10117000A0F3959FD1F3950F50E0551F629FF001AA
:10118000729FBB27F00DB11D639FAA27F00DB11D03
:10119000AA1F649F6627B00DA11D661F829F22278C
:1011A000B00DA11D621F739FB00DA11D621F839F13
:1011B000A00D611D221F749F3327A00D611D231FE9
:1011C000849F600D211D822F762F6A2F11249F5737
:1011D00050408AF0E1F088234AF0EE0FFF1FBB1F5A
:1011E000661F771F881F91505040A9F79E3F5105F9
:1011F00070F05CCFA6CF5F3FECF3983EDCF38695B2
:1012000077956795B795F795E7959F5FC1F7FE2BA3
:10121000880F911D9695879597F9089597FB072E4E
:1012200016F4009406D077FD08D088D007FC05D0CE
:101230003EF4909581959F4F0895709561957F4FED
:101240000895052E97FB16F400940FD057FD05D096
:1012500089D007FC02D046F408C0509540953095DF
:1012600021953F4F4F4F5F4F089590958095709512
:1012700061957F4F8F4F9F4F089505D0332312F410
:101280008A1B9B0B0DC0A29FB001B39FC001A39FFF
:1012900001D0B29F700D811D1124911D0895F3DFBF
:1012A000B7FF0895821B930B08952F923F924F92A0
:1012B0005F926F927F928F929F92AF92BF92CF92E6
:1012C000DF92EF92FF920F931F93CF93DF93CDB7EF
:1012D000DEB7CA1BDB0B0FB6F894DEBF0FBECDBF67
:1012E00009942A88398848885F846E847D848C8438
:1012F0009B84AA84B984C884DF80EE80FD800C8141
:101300001B81AA81B981CE0FD11D0FB6F894DEBF23
:101310000FBECDBFED0108952A0D3B1D4C1D5D1D77
:101320006E1D7F1D801F911F08952A193B094C09CE
:101330005D096E097F09800B910B0895AA1BBB1BE9
:1013400051E107C0AA1FBB1FA617B70710F0A61BC5
:10135000B70B881F991F5A95A9F780959095BC01E6
:10136000CD010895A1E21A2EAA1BBB1BFD010DC0E1
:10137000AA1FBB1FEE1FFF1FA217B307E407F50745
:1013800020F0A21BB30BE40BF50B661F771F881F21
:10139000991F1A9469F760957095809590959B01B7
:1013A000AC01BD01CF010895AEE0B0E0E9EDF9E098
:1013B0008ACF0D891E8986E08C831A8309838FEF7B
:1013C0009FE79E838D83AE01475E5F4F6F89788D67
:1013D000CE01019608D0EF81F885E00FF11F108251
:1013E0002E96E4E08CCFABE0B0E0E8EFF9E05DCF23
:1013F0006C017B018A01FC0117821682838181FFC7
:10140000BFC1CE0101963C01F6019381F70193FD26
:10141000859193FF81917F01882309F4ADC18532C5
:1014200039F493FD859193FF81917F01853221F4F9
:10143000B60190E0C0D1E8CF912C212C312CFFE1F6
:10144000F315D8F08B3279F038F4803279F08332AA
:10145000A1F4232D20611DC08D3261F0803369F429
:10146000232D216016C0832D8260382EE32DE46089
:101470003E2E2AC0F32DF8601DC037FC2DC020ED94
:10148000280F2A3040F08E32B9F436FC75C1232D76
:101490002064322E19C036FE06C08AE0989E200DC8
:1014A0001124922E11C0EAE02E9E200D1124222E2E
:1014B000F32DF0623F2E08C08C3621F4832D806816
:1014C000382E02C0883641F4F70193FD859193FFD1
:1014D00081917F018111B3CF982F9F7D95549330D7
:1014E00028F40C5F1F4F9FE399830DC0833631F0C2
:1014F000833771F0833509F055C020C0F801808131
:1015000089830E5F1F4F88248394912C530112C04E
:101510002801F2E04F0E511CF801A080B18036FE88
:1015200003C0692D70E002C06FEF7FEFC50138D1B5
:101530004C018201F32DFF773F2E15C0280122E0D8
:10154000420E511CF801A080B18036FE03C0692D07
:1015500070E002C06FEF7FEFC50117D14C01F32D92
:10156000F0683F2E820133FC19C0822D90E088166E
:101570009906A0F4B60180E290E01DD12A94F5CF3F
:10158000F50137FC859137FE81915F01B60190E04E
:1015900012D121102A9421E0821A91088114910419
:1015A00079F7E1C0843611F0893639F5F80137FE54
:1015B00007C060817181828193810C5F1F4F08C0D9
:1015C00060817181072E000C880B990B0E5F1F4FF5
:1015D000F32DFF763F2E97FF09C09095809570956B
:1015E00061957F4F8F4F9F4FF0683F2E2AE030E08C
:1015F000A3011DD1882E861844C0853731F4232DD0
:101600002F7EB22E2AE030E025C0932D997FB92E8F
:101610008F36C1F018F4883579F0AEC0803719F0F4
:10162000883721F0A9C0E92FE061BE2EB4FE0DC0BD
:10163000FB2DF460BF2E09C034FE0AC0292F26609E
:10164000B22E06C028E030E005C020E130E002C044
:1016500020E132E0F801B7FE07C06081718182812C
:1016600093810C5F1F4F06C06081718180E090E024
:101670000E5F1F4FA301DBD0882E8618FB2DFF774E
:101680003F2E36FE0DC0232D2E7FA22E891458F436
:1016900034FE0BC032FC09C0832D8E7EA82E05C0FF
:1016A000B82CA32C03C0B82C01C0B92CA4FE0FC0C9
:1016B000FE01E80DF11D8081803321F49A2D997E81
:1016C000A92E09C0A2FE06C0B394B39404C08A2D0B
:1016D000867809F0B394A3FC10C0A0FE06C0B21433
:1016E00080F4280C922C9B180DC0B21458F4B6014B
:1016F00080E290E060D0B394F8CFB21418F42B18C5
:1017000002C0982C212CA4FE0FC0B60180E390E00B
:1017100052D0A2FE16C0A1FC03C088E790E002C030
:1017200088E590E0B6010CC08A2D867851F0A1FEC4
:1017300002C08BE201C080E2A7FC8DE2B60190E01E
:101740003AD0891430F4B60180E390E034D09A9412
:10175000F8CF8A94F301E80DF11D8081B60190E085
:101760002AD08110F6CF222009F44ECEB60180E2B5
:1017700090E021D02A94F7CFF6018681978102C0AC
:101780008FEF9FEF2B96E2E1ACCDFC01059061500D
:1017900070400110D8F7809590958E0F9F1F089587
:1017A000FC016150704001900110D8F78095909530
:1017B0008E0F9F1F08950F931F93CF93DF93FB010D
:1017C000238121FD03C08FEF9FEF2CC022FF16C0A5
:1017D00046815781248135814217530744F4A08103
:1017E000B1819D012F5F3F4F318320838C932681F0
:1017F00037812F5F3F4F3783268314C08B01EC0165
:10180000FB010084F185E02D0995892BE1F6D801D3
:1018100016968D919C911797019617969C938E938F
:101820001697CE01DF91CF911F910F910895FA0184
:10183000AA27283051F1203181F1E8946F936E7F0F
:101840006E5F7F4F8F4F9F4FAF4FB1E03ED0B4E000
:101850003CD0670F781F891F9A1FA11D680F791F41
:101860008A1F911DA11D6A0F711D811D911DA11D52
:1018700020D009F468943F912AE0269F1124301962
:10188000305D3193DEF6CF010895462F4770405DFD
:101890004193B3E00FD0C9F7F6CF462F4F70405DAC
:1018A0004A3318F0495D31FD4052419302D0A9F707
:1018B000EACFB4E0A6959795879577956795BA9501
:1018C000C9F700976105710508959B01AC010A2EC7
:1018D00006945795479537952795BA95C9F7620F9E
:0E18E000731F841F951FA01D0895F894FFCF5D
:1018EE00D0FFFCFF2D008A013C03A606FE10D2FF9E
:1018FE007D168C2CE8424E59553D302E30302564E5
:10190E0000553D302E30256400553D25642E25644E
:10191E0000493D302E3030256400493D302E3025B3
:10192E006400493D25642E256400503D302E303034
:10193E00256400503D302E30256400503D25642E28
:10194E00256400000000000000005F00000007009A
:10195E000700147F147F14242A7F2A12231308648D
:10196E006236495522500005030000001C2241003A
:10197E000041221C0014083E081408083E08080006
:10198E0050300000080808080800606000002010B1
:10199E000804023E5149453E00427F4000426151DB
:1019AE0049462141454B311814127F1027454545B4
:1019BE00393C4A49493001710905033649494936CE
:1019CE00064949291E00363600000056360000082A
:1019DE00142241001414141414004122140802019C
:1019EE00510906324979413E7E1111117E7F4949D6
:1019FE0049363E414141227F4141221C7F4949499E
:101A0E00417F090909013E4149497A7F0808087F4B
:101A1E0000417F41002040413F017F081422417F59
:101A2E00404040407F020C027F7F0408107F3E4101
:101A3E0041413E7F090909063E4151215E7F091948
:101A4E002946464949493101017F01013F40404045
:101A5E003F1F2040201F3F4038403F63140814634F
:101A6E0007087008076151494543007F4141000254
:101A7E00040810200041417F00040201020440408E
:101A8E00404040000102040020545454787F4844E2
:101A9E0044383844444420384444487F38545454DD
:101AAE0018087E0901020C5252523E7F0804047837
:101ABE0000447D40002040443D007F10284400003B
:101ACE00417F40007C041804787C08040478384474
:101ADE004444387C14141408081414187C7C08042C
:101AEE0004084854545420043F4440203C404020B5
:101AFE007C1C2040201C3C4030403C442810284494
:101B0E000C5050503C4464544C4400083641000084
:101B1E00007F0000004136080010080810087846C3
:041B2E0041467800B4
:00000001FF
