:1000000012C02CC02BC02AC029C028C027C026C0BF
:1000100025C097C623C0D5C321C020C01FC01EC0A5
:100020001DC01CC01BC011241FBECFE5D4E0DEBF25
:10003000CDBF12E0A0E6B0E0EEE1F8E102C005902D
:100040000D92A43AB107D9F722E0A4EAB2E001C0C8
:100050001D92A73DB207E1F702D0DFCBD1CFCF93FE
:10006000DF93CDB7DEB72B970FB6F894DEBF0FBE88
:10007000CDBF80E09BE0D7D13DD20F2EF7E07F2EA1
:10008000F02D8E010F5F1F4F0F2EF9E84F2EF0E07D
:100090005F2EF02D0F2EF2EA2F2EF0E03F2EF02DE6
:1000A0000FD56C01FAD34B015C01C60164E670E028
:1000B00056D87401E61AF70A9701D6017FD86887E7
:1000C00079878A879B8728EE33E040E050E05AD852
:1000D00049015A01F801272D11922A95E9F78AE082
:1000E000E816F104A4F4C70168EE73E038D89F93D2
:1000F0008F93E8E7F0E0FF93EF931F930F93ECD813
:100100000F900F900F900F900F900F9047C084E6C4
:10011000E816F104A4F4C70168EE73E020D89F93B9
:100120008F93E1E8F0E0FF93EF931F930F93D4D800
:100130000F900F900F900F900F900F902FC080E1B5
:10014000E81687E2F8069CF4C70168EE73E007D86A
:100150009F938F937F936F935F924F921F930F9311
:10016000BBD80FB6F894DEBF0FBECDBF17C0C70116
:1001700068EE73E0F4D7262F372F6AE070E0EFD7F0
:100180007F936F933F932F935F924F921F930F93A1
:10019000A3D80FB6F894DEBF0FBECDBF40E060E03D
:1001A000C80171D2F801272D11922A95E9F78AE04A
:1001B000C816D104A4F4C60168EE73E0D0D79F93AB
:1001C0008F9381E990E09F938F931F930F9384D82F
:1001D0000F900F900F900F900F900F9047C094E6E4
:1001E000C916D104A4F4C60168EE73E0B8D79F9392
:1001F0008F938AE990E09F938F931F930F936CD80E
:100200000F900F900F900F900F900F902FC0E0E184
:10021000CE16E7E2DE069CF4C60168EE73E09FD7D7
:100220009F938F937F936F933F922F921F930F9380
:1002300053D80FB6F894DEBF0FBECDBF17C0C601AE
:1002400068EE73E08CD7262F372F6AE070E087D7EF
:100250007F936F933F932F933F922F921F930F9310
:100260003BD80FB6F894DEBF0FBECDBF41E060E0D3
:10027000C80109D2F801272D11922A95E9F78AE0E1
:1002800088169104A104B104BCF4C501B40128EEA0
:1002900033E040E050E076D77F936F938AEA90E0B6
:1002A0009F938F931F930F9317D80F900F900F90DA
:1002B0000F900F900F9088C094E689169104A104C6
:1002C000B104BCF4C501B40128EE33E040E050E0D5
:1002D00059D77F936F9383EB90E09F938F931F93F6
:1002E0000F93FAD70F900F900F900F900F900F90E1
:1002F0006BC0688579858A859B8520E432E44FE070
:1003000050E040D7F22EE32EE0E18E16E7E29E06A3
:10031000A104B104C4F4C501B40128EE33E040E007
:1003200050E030D77F936F93EF92FF928BEB90E08A
:100330009F938F931F930F93CFD70FB6F894DEBF81
:100340000FBECDBF41C090EA891696E8990691E0AC
:10035000A906B104ECF4C501B40128EE33E040E095
:1003600050E010D72AE030E040E050E00BD73F9358
:100370002F93EF92FF928BEB90E09F938F931F93BD
:100380000F93AAD70FB6F894DEBF0FBECDBF1CC027
:10039000C501B40128EE33E040E050E0F3D624E696
:1003A00030E040E050E0EED63F932F93EF92FF9283
:1003B0008BEB90E09F938F931F930F938DD70FB686
:1003C000F894DEBF0FBECDBF42E060E0C8015BD154
:1003D00067CECF93DF93C82FADD180E993D18C2F17
:1003E00091D1A8D181E98ED1BFD1D82FCDD1C82F3D
:1003F000B4D18C2F90E09D2BDF91CF9108951F9366
:10040000CF93DF93182FC62FD72F94D180E97AD1BD
:10041000812F78D18D2F76D18C2F74D19ED1DF9101
:10042000CF911F910895CF93DF93EC0160E082E0BC
:1004300062D1BE0181E0E3DF83E0CBDFBC01706805
:1004400083E0DDDF82E0C5DFBC017F7782E0D7DFBC
:1004500081E0DF91CF910895CF93DF939C013F7EA0
:100460002115310559F0211540E2340739F02115E5
:1004700040E4340719F02115304649F4EC0181E0DD
:10048000A8DF9F78BC016C2B7D2B81E0B8DFDF916A
:10049000CF91089581E09DDFBC01706881E0AFDFFE
:1004A000089580E096DF089581E093DF892F881F0B
:1004B0008827881F0895D0DFEDDFF6DF8823E9F372
:1004C000F0DF0895C098C198FFD0C09A0895C098F1
:1004D000C19AFAD0C09A0895CF93DF93C0E0D0E0DC
:1004E00080E0F5DF2196C83F81E0D807C9F7DF91AA
:1004F000CF910895E2D0B89AB99A8F9ABA9AC29ACF
:10050000C09A979A9798979A81E2DCDF8AEBDADFB4
:1005100084E0D8DF84E1D6DF80E2D4DF8CE0D2DF74
:10052000DBDF0895CF93DF93C82FD62F80E2CADF99
:10053000C43540F4D63030F48C2F8068C3DF8D2F63
:100540008064C0DFDF91CF9108958F929F92AF9228
:10055000BF92CF92DF92EF92FF920F931F93CF93B0
:10056000DF93CDB7DEB764970FB6F894DEBF0FBE4A
:10057000CDBF962E842EFE01319694E1DF011D92AF
:100580009A95E9F790E05C01AA0CBB1CAA0CBB1C75
:100590008A0D9B1D9C012D5D3F4F59018F017E01EE
:1005A00035E1E30EF11CCC24C394D12C31C09D0164
:1005B000082E02C0359527950A94E2F720FF1EC049
:1005C0009C01220F331FA60102C0440F551F2A951C
:1005D000E2F79601062E02C0220F331F0A94E2F7BB
:1005E000242B352B40815181242B352B31832083C3
:1005F00042815381242B352B3383228301966E5FF6
:100600007F4F8830910599F63496EE15FF0551F02D
:10061000D5018D915D01A82FB0E061E070E080E030
:1006200090E0C5CF880C692D660F862F880F880F44
:10063000680F960EBB24B394B80CF801C080D1802B
:100640000E5F1F4F682D892D6DDF8C2D40DF6B2DC8
:10065000892D68DF8D2D3BDF93940E151F0569F7FB
:1006600064960FB6F894DEBF0FBECDBFDF91CF9179
:100670001F910F91FF90EF90DF90CF90BF90AF90C0
:100680009F908F9008950F931F93CF93DF93FC015A
:100690008081882369F0D42F8F01C0E04D2F6C2F0B
:1006A00054DFCF5FF801EC0FF11D80818111F6CF8F
:1006B000DF91CF911F910F91089587B38C6287BB13
:1006C0008DB180658DB908956E9A8FB9779BFECFF5
:1006D0006E98089581B181B181B1887F90E0803AB0
:1006E000910514F481B101C081B18091A4028F5FA2
:1006F0008093A402089580B9643018F481B1682B06
:1007000061B908959091A402911113C083B984E84E
:1007100086BF06B607FEFDCF81B1887F883249F0DB
:1007200081B1887F803429F081B1887F883109F0D8
:10073000D1DF08958091A40281110EC084EA86BFA2
:1007400006B607FEFDCF81B1887F883029F081B1E0
:10075000887F803109F0BEDF08958091A402811165
:1007600002C084E986BF08958091A40281110AC065
:1007700084EC86BF06B607FEFDCF81B1887F803549
:1007800009F0A8DF83B108958091A40281110AC005
:1007900084E886BF06B607FEFDCF81B1887F883525
:1007A00009F098DF83B108955F9BFECF8CB1089567
:1007B000E8EBF2E085ED92E01192E817F907E1F736
:1007C00008951F920F920FB60F9211242F933F930B
:1007D0004F935F936F937F938F939F93AF93BF9349
:1007E000CF93EF93FF931092A602C091A502C1117F
:1007F00001C0DEDFD9DF8A3051F0EC2FF0E0E854A1
:10080000FD4F8083E1E0EC0FE093A5020BC0EC2FDD
:10081000F0E0E854FD4F8AE080831092A50281E069
:100820008093A602FF91EF91CF91BF91AF919F91DD
:100830008F917F916F915F914F913F912F910F9089
:100840000FBE0F901F901895CF92DF92EF92FF92FC
:10085000C090AB02D090AC02E090AD02F090AE023E
:10086000BC01990F880B990B63D3A7019601C4D2E1
:1008700020E030E040E05FE30FD4A7019601BDD255
:100880006093AB027093AC028093AD029093AE0282
:10089000FF90EF90DF90CF9008958F929F92AF924C
:1008A000BF92CF92DF92EF92FF9280E090E603DE5C
:1008B000CBDF6B017C0160916E0070916F00072EA1
:1008C000000C880B990B34D34B015C019B01AC01EC
:1008D000C701B601F6D288230CF4B8C0A501940173
:1008E000C701B601D5D38823ECF0609170007091F8
:1008F0007100072E000C880B990B1AD39B01AC01D9
:10090000C701B601DED288236CF42BE237E846E556
:100910005FE3C701B601C0D32CEF39E24AE152E4EC
:100920006CD297C06091700070917100072E000C1E
:10093000880B990BFDD29B01AC01C701B601A8D36E
:100940008823ECF06091720070917300072E000C08
:10095000880B990BEDD29B01AC01C701B601B1D256
:1009600088236CF424EB38EC46E55FE3C701B6015D
:1009700093D320EF37EA4DEF51E43FD26AC0609144
:10098000720070917300072E000C880B990BD0D267
:100990009B01AC01C701B6017BD38823ECF06091C9
:1009A000740070917500072E000C880B990BC0D253
:1009B0009B01AC01C701B60184D288236CF424EBFF
:1009C00038EC46E55FE3C701B60166D327E836E9B0
:1009D00043E152E412D23DC0609174007091750001
:1009E000072E000C880B990BA3D29B01AC01C70109
:1009F000B6014ED38823ECF06091760070917700B9
:100A0000072E000C880B990B93D29B01AC01C701F8
:100A1000B60157D288236CF424EB38EC46E55FE34B
:100A2000C701B60139D32DEC3CE440E052E4E5D1F6
:100A300010C02BE237E846E55FE3C701B6012CD3CF
:100A400021EE3AE74BE752E4D8D103C060E070E012
:100A5000CB013BD2072E000C880B990BFF90EF9037
:100A6000DF90CF90BF90AF909F908F900895CF92DE
:100A7000DF92EF92FF92C090A702D090A802E09080
:100A8000A902F090AA02BC01990F880B990B50D2D1
:100A9000A7019601B1D120E030E040E05FE3FCD255
:100AA000A7019601AAD16093A7027093A802809330
:100AB000A9029093AA02FF90EF90DF90CF90089543
:100AC0008F929F92AF92BF92CF92DF92EF92FF925E
:100AD00080E090E7F0DCCBDF6B017C01609160008F
:100AE00070916100072E000C880B990B21D24B01ED
:100AF0005C019B01AC01C701B601E3D188230CF472
:100B000012C1A5019401C701B601C2D28823ECF03D
:100B10006091620070916300072E000C880B990BA6
:100B200007D29B01AC01C701B601CBD188236CF47D
:100B30002DE13AE544E95FE3C701B601ADD224E413
:100B40003BE84EE552E459D1F1C0609162007091EA
:100B50006300072E000C880B990BEAD19B01AC01B6
:100B6000C701B60195D28823ECF0609164007091C2
:100B70006500072E000C880B990BDAD19B01AC01A4
:100B8000C701B6019ED188236CF422EB3DE94FE802
:100B90005FE3C701B60180D223EC35EF4DE552E4A7
:100BA0002CD1C4C06091640070916500072E000CC8
:100BB000880B990BBDD19B01AC01C701B60168D26E
:100BC0008823ECF06091660070916700072E000C9E
:100BD000880B990BADD19B01AC01C701B60171D156
:100BE00088236CF421E230EB42E95FE3C701B601F0
:100BF00053D22DE232EB49E552E4FFD097C0609129
:100C0000660070916700072E000C880B990B90D13D
:100C10009B01AC01C701B6013BD28823ECF0609187
:100C2000680070916900072E000C880B990B80D129
:100C30009B01AC01C701B60144D188236CF42CE5BB
:100C40003FE842E95FE3C701B60126D228E539E370
:100C50004BE552E4D2D06AC060916800709169009F
:100C6000072E000C880B990B63D19B01AC01C701C7
:100C7000B6010ED28823ECF060916A0070916B008F
:100C8000072E000C880B990B53D19B01AC01C701B7
:100C9000B60117D188236CF42AE43CE042E95FE313
:100CA000C701B601F9D120E635EE49E652E4A5D0F8
:100CB0003DC060916A0070916B00072E000C880B9C
:100CC000990B36D19B01AC01C701B601E1D1882354
:100CD000ECF060916C0070916D00072E000C880B99
:100CE000990B26D19B01AC01C701B601EAD088233C
:100CF0006CF427E339E841E95FE3C701B601CCD1E1
:100D000026E636EA42E852E478D010C022EB3DE90C
:100D10004FE85FE3C701B601BFD12EE432E040E007
:100D200053E46BD003C060E070E0CB01CED0CB01C8
:100D3000FF90EF90DF90CF90BF90AF909F908F90FB
:100D400008951F920F920FB60F921124AF92BF9287
:100D5000CF92DF92EF92FF920F931F932F933F93C7
:100D60004F935F936F937F938F939F938091B7027D
:100D700082BF8091D602882351F12091D602A090A3
:100D8000AF02B090B002C090B102D090B202E09039
:100D9000B302F090B4020091B5021091B60230E0B7
:100DA00040E050E060E070E080E090E056D22093B8
:100DB000AF023093B0024093B1025093B2026093FD
:100DC000B3027093B4028093B5029093B6029F91E0
:100DD0008F917F916F915F914F913F912F911F91D3
:100DE0000F91FF90EF90DF90CF90BF90AF900F905A
:100DF0000FBE0F901F9018955058BB27AA270ED0F2
:100E00000DC1FED030F003D120F031F49F3F11F43A
:100E10001EF4F3C00EF4E095E7FBE9C0E92F0FD113
:100E200080F3BA17620773078407950718F071F407
:100E30009EF527C10EF4E0950B2EBA2FA02D0B01C5
:100E4000B90190010C01CA01A0011124FF27591B0F
:100E500099F0593F50F4503E68F11A16F040A22F15
:100E6000232F342F4427585FF3CF46953795279586
:100E7000A795F0405395C9F77EF41F16BA0B620B85
:100E8000730B840BBAF09150A1F0FF0FBB1F661FCC
:100E9000771F881FC2F70EC0BA0F621F731F841F0F
:100EA00048F4879577956795B795F7959E3F08F035
:100EB000B3CF9395880F08F09927EE0F97958795F4
:100EC000089571D008F481E0089504D06894B111B8
:100ED000D9C00895BCD088F09F5790F0B92F9927BA
:100EE000B751A0F0D1F0660F771F881F991F1AF035
:100EF000BA95C9F712C0B13081F0C3D0B1E00895FE
:100F0000C0C0672F782F8827B85F39F0B93FCCF37E
:100F1000869577956795B395D9F73EF4909580952A
:100F2000709561957F4F8F4F9F4F0895E89409C04A
:100F300097FB3EF490958095709561957F4F8F4F0C
:100F40009F4F9923A9F0F92F96E9BB279395F69522
:100F5000879577956795B795F111F8CFFAF4BB0FA0
:100F600011F460FF1BC06F5F7F4F8F4F9F4F16C004
:100F7000882311F096E911C0772321F09EE8872F8E
:100F8000762F05C0662371F096E8862F70E060E04A
:100F90002AF09A95660F771F881FDAF7880F9695C3
:100FA000879597F90895990F0008550FAA0BE0E867
:100FB000FEEF16161706E807F907C0F0121613061B
:100FC000E407F50798F0621B730B840B950B39F45B
:100FD0000A2661F0232B242B252B21F408950A26C1
:100FE00009F4A140A6958FEF811D811D089597F901
:100FF0009F6780E870E060E008959FEF80EC0895BF
:1010000000240A94161617061806090608950024E7
:101010000A9412161306140605060895092E039461
:10102000000C11F4882352F0BB0F40F4BF2B11F4D5
:1010300060FF04C06F5F7F4F8F4F9F4F089557FD34
:101040009058440F551F59F05F3F71F04795880F36
:1010500097FB991F61F09F3F79F0879508951216CD
:1010600013061406551FF2CF4695F1DF08C0161679
:1010700017061806991FF1CF86957105610508942A
:101080000895E894BB2766277727CB0197F9089541
:101090008ADF08F48FEF08950BD0C0CFB1DF28F0BE
:1010A000B6DF18F0952309F0A2CFA7CF1124EACF1D
:1010B000C6DFA0F3959FD1F3950F50E0551F629FB7
:1010C000F001729FBB27F00DB11D639FAA27F00DA1
:1010D000B11DAA1F649F6627B00DA11D661F829FC8
:1010E0002227B00DA11D621F739FB00DA11D621FAD
:1010F000839FA00D611D221F749F3327A00D611DCA
:10110000231F849F600D211D822F762F6A2F1124AB
:101110009F5750408AF0E1F088234AF0EE0FFF1FFE
:10112000BB1F661F771F881F91505040A9F79E3F35
:10113000510570F05CCFA6CF5F3FECF3983EDCF337
:10114000869577956795B795F795E7959F5FC1F772
:10115000FE2B880F911D9695879597F9089597FB1B
:10116000072E16F4009406D077FD08D07FD007FC38
:1011700005D03EF4909581959F4F089570956195A7
:101180007F4F0895052E97FB16F400940FD057FD5E
:1011900005D080D007FC02D046F408C05095409599
:1011A000309521953F4F4F4F5F4F08959095809513
:1011B000709561957F4F8F4F9F4F089505D03323D2
:1011C00012F48A1B9B0B0DC0A29FB001B39FC001FC
:1011D000A39F01D0B29F700D811D1124911D089510
:1011E000F3DFB7FF0895821B930B08952F923F9270
:1011F0004F925F926F927F928F929F92AF92BF9227
:10120000CF92DF92EF92FF920F931F93CF93DF93D2
:10121000CDB7DEB7CA1BDB0B0FB6F894DEBF0FBE2F
:10122000CDBF09942A88398848885F846E847D847C
:101230008C849B84AA84B984C884DF80EE80FD807E
:101240000C811B81AA81B981CE0FD11D0FB6F894F4
:10125000DEBF0FBECDBFED0108952A0D3B1D4C1D15
:101260005D1D6E1D7F1D801F911F0895AA1BBB1B56
:1012700051E107C0AA1FBB1FA617B70710F0A61B96
:10128000B70B881F991F5A95A9F780959095BC01B7
:10129000CD010895A1E21A2EAA1BBB1BFD010DC0B2
:1012A000AA1FBB1FEE1FFF1FA217B307E407F50716
:1012B00020F0A21BB30BE40BF50B661F771F881FF2
:1012C000991F1A9469F760957095809590959B0188
:1012D000AC01BD01CF010895AEE0B0E0E1E7F9E077
:1012E00093CF0D891E8986E08C831A8309838FEF43
:1012F0009FE79E838D83AE01475E5F4F6F89788D38
:10130000CE01019608D0EF81F885E00FF11F108221
:101310002E96E4E095CFABE0B0E0E0E9F9E066CFEF
:101320006C017B018A01FC0117821682838181FF97
:10133000BFC1CE0101963C01F6019381F70193FDF7
:10134000859193FF81917F01882309F4ADC1853296
:1013500039F493FD859193FF81917F01853221F4CA
:10136000B60190E0C0D1E8CF912C212C312CFFE1C7
:10137000F315D8F08B3279F038F4803279F083327B
:10138000A1F4232D20611DC08D3261F0803369F4FA
:10139000232D216016C0832D8260382EE32DE4605A
:1013A0003E2E2AC0F32DF8601DC037FC2DC020ED65
:1013B000280F2A3040F08E32B9F436FC75C1232D47
:1013C0002064322E19C036FE06C08AE0989E200D99
:1013D0001124922E11C0EAE02E9E200D1124222EFF
:1013E000F32DF0623F2E08C08C3621F4832D8068E7
:1013F000382E02C0883641F4F70193FD859193FFA2
:1014000081917F018111B3CF982F9F7D95549330A7
:1014100028F40C5F1F4F9FE399830DC0833631F092
:10142000833771F0833509F055C020C0F801808101
:1014300089830E5F1F4F88248394912C530112C01F
:101440002801F2E04F0E511CF801A080B18036FE59
:1014500003C0692D70E002C06FEF7FEFC50138D186
:101460004C018201F32DFF773F2E15C0280122E0A9
:10147000420E511CF801A080B18036FE03C0692DD8
:1014800070E002C06FEF7FEFC50117D14C01F32D63
:10149000F0683F2E820133FC19C0822D90E088163F
:1014A0009906A0F4B60180E290E01DD12A94F5CF10
:1014B000F50137FC859137FE81915F01B60190E01F
:1014C00012D121102A9421E0821A910881149104EA
:1014D00079F7E1C0843611F0893639F5F80137FE25
:1014E00007C060817181828193810C5F1F4F08C0AA
:1014F00060817181072E000C880B990B0E5F1F4FC6
:10150000F32DFF763F2E97FF09C09095809570953B
:1015100061957F4F8F4F9F4FF0683F2E2AE030E05C
:10152000A3011DD1882E861844C0853731F4232DA0
:101530002F7EB22E2AE030E025C0932D997FB92E60
:101540008F36C1F018F4883579F0AEC0803719F0C5
:10155000883721F0A9C0E92FE061BE2EB4FE0DC08E
:10156000FB2DF460BF2E09C034FE0AC0292F26606F
:10157000B22E06C028E030E005C020E130E002C015
:1015800020E132E0F801B7FE07C0608171818281FD
:1015900093810C5F1F4F06C06081718180E090E0F5
:1015A0000E5F1F4FA301DBD0882E8618FB2DFF771F
:1015B0003F2E36FE0DC0232D2E7FA22E891458F407
:1015C00034FE0BC032FC09C0832D8E7EA82E05C0D0
:1015D000B82CA32C03C0B82C01C0B92CA4FE0FC09A
:1015E000FE01E80DF11D8081803321F49A2D997E52
:1015F000A92E09C0A2FE06C0B394B39404C08A2DDC
:10160000867809F0B394A3FC10C0A0FE06C0B21403
:1016100080F4280C922C9B180DC0B21458F4B6011B
:1016200080E290E060D0B394F8CFB21418F42B1895
:1016300002C0982C212CA4FE0FC0B60180E390E0DC
:1016400052D0A2FE16C0A1FC03C088E790E002C001
:1016500088E590E0B6010CC08A2D867851F0A1FE95
:1016600002C08BE201C080E2A7FC8DE2B60190E0EF
:101670003AD0891430F4B60180E390E034D09A94E3
:10168000F8CF8A94F301E80DF11D8081B60190E056
:101690002AD08110F6CF222009F44ECEB60180E286
:1016A00090E021D02A94F7CFF6018681978102C07D
:1016B0008FEF9FEF2B96E2E1B5CDFC0105906150D5
:1016C00070400110D8F7809590958E0F9F1F089558
:1016D000FC016150704001900110D8F78095909501
:1016E0008E0F9F1F08950F931F93CF93DF93FB01DE
:1016F000238121FD03C08FEF9FEF2CC022FF16C076
:1017000046815781248135814217530744F4A081D3
:10171000B1819D012F5F3F4F318320838C932681C0
:1017200037812F5F3F4F3783268314C08B01EC0135
:10173000FB010084F185E02D0995892BE1F6D801A4
:1017400016968D919C911797019617969C938E9360
:101750001697CE01DF91CF911F910F910895FA0155
:10176000AA27283051F1203181F1E8946F936E7FE0
:101770006E5F7F4F8F4F9F4FAF4FB1E03ED0B4E0D1
:101780003CD0670F781F891F9A1FA11D680F791F12
:101790008A1F911DA11D6A0F711D811D911DA11D23
:1017A00020D009F468943F912AE0269F1124301933
:1017B000305D3193DEF6CF010895462F4770405DCE
:1017C0004193B3E00FD0C9F7F6CF462F4F70405D7D
:1017D0004A3318F0495D31FD4052419302D0A9F7D8
:1017E000EACFB4E0A6959795879577956795BA95D2
:1017F000C9F700976105710508959B01AC010A2E98
:1018000006945795479537952795BA95C9F7620F6E
:0E181000731F841F951FA01D0895F894FFCF2D
:10181E00D0FFFCFF2D008A013C03A606FE10D2FF6E
:10182E007D168C2CE8424E59553D302E30302564B5
:10183E0000553D302E30256400553D25642E25641F
:10184E0000493D302E3030256400493D302E302584
:10185E006400493D25642E256400503D302E303005
:10186E00256400503D302E30256400503D25642EF9
:10187E00256400000000000000005F00000007006B
:10188E000700147F147F14242A7F2A12231308645E
:10189E006236495522500005030000001C2241000B
:1018AE000041221C0014083E081408083E080800D7
:1018BE005030000008080808080060600000201082
:1018CE000804023E5149453E00427F4000426151AC
:1018DE0049462141454B311814127F102745454585
:1018EE00393C4A494930017109050336494949369F
:1018FE00064949291E0036360000005636000008FB
:10190E00142241001414141414004122140802016C
:10191E00510906324979413E7E1111117E7F4949A6
:10192E0049363E414141227F4141221C7F4949496E
:10193E00417F090909013E4149497A7F0808087F1C
:10194E0000417F41002040413F017F081422417F2A
:10195E00404040407F020C027F7F0408107F3E41D2
:10196E0041413E7F090909063E4151215E7F091919
:10197E002946464949493101017F01013F40404016
:10198E003F1F2040201F3F4038403F631408146320
:10199E0007087008076151494543007F4141000225
:1019AE00040810200041417F00040201020440405F
:1019BE00404040000102040020545454787F4844B3
:1019CE0044383844444420384444487F38545454AE
:1019DE0018087E0901020C5252523E7F0804047808
:1019EE0000447D40002040443D007F10284400000C
:1019FE00417F40007C041804787C08040478384445
:101A0E004444387C14141408081414187C7C0804FC
:101A1E0004084854545420043F4440203C40402085
:101A2E007C1C2040201C3C4030403C442810284464
:101A3E000C5050503C4464544C4400083641000055
:101A4E00007F000000413608001008081008784694
:041A5E004146780085
:00000001FF
